{
	"contracts/FundMe-Project/FundMe.sol": {
		"FundMe": {
			"abi": [
				{
					"inputs": [],
					"stateMutability": "nonpayable",
					"type": "constructor"
				},
				{
					"stateMutability": "payable",
					"type": "fallback"
				},
				{
					"inputs": [],
					"name": "fund",
					"outputs": [],
					"stateMutability": "payable",
					"type": "function"
				},
				{
					"inputs": [
						{
							"internalType": "address",
							"name": "funder",
							"type": "address"
						}
					],
					"name": "funderToAmountSent",
					"outputs": [
						{
							"internalType": "uint256",
							"name": "amountSend",
							"type": "uint256"
						}
					],
					"stateMutability": "view",
					"type": "function"
				},
				{
					"inputs": [
						{
							"internalType": "uint256",
							"name": "",
							"type": "uint256"
						}
					],
					"name": "funders",
					"outputs": [
						{
							"internalType": "address",
							"name": "",
							"type": "address"
						}
					],
					"stateMutability": "view",
					"type": "function"
				},
				{
					"inputs": [],
					"name": "minUSD",
					"outputs": [
						{
							"internalType": "uint256",
							"name": "",
							"type": "uint256"
						}
					],
					"stateMutability": "view",
					"type": "function"
				},
				{
					"inputs": [],
					"name": "owner",
					"outputs": [
						{
							"internalType": "address",
							"name": "",
							"type": "address"
						}
					],
					"stateMutability": "view",
					"type": "function"
				},
				{
					"inputs": [],
					"name": "withdraw",
					"outputs": [],
					"stateMutability": "nonpayable",
					"type": "function"
				},
				{
					"stateMutability": "payable",
					"type": "receive"
				}
			],
			"devdoc": {
				"kind": "dev",
				"methods": {},
				"version": 1
			},
			"evm": {
				"assembly": "    /* \"contracts/FundMe-Project/FundMe.sol\":112:1515  contract FundMe{... */\n  mstore(0x40, 0xa0)\n    /* \"contracts/FundMe-Project/FundMe.sol\":422:463  constructor(){... */\n  callvalue\n  dup1\n  iszero\n  tag_1\n  jumpi\n  0x00\n  dup1\n  revert\ntag_1:\n  pop\n    /* \"contracts/FundMe-Project/FundMe.sol\":449:459  msg.sender */\n  caller\n    /* \"contracts/FundMe-Project/FundMe.sol\":441:459  owner = msg.sender */\n  0xffffffffffffffffffffffffffffffffffffffff\n  and\n  0x80\n  dup2\n  0xffffffffffffffffffffffffffffffffffffffff\n  and\n  dup2\n  mstore\n  pop\n  pop\n    /* \"contracts/FundMe-Project/FundMe.sol\":112:1515  contract FundMe{... */\n  mload(0x80)\n  codecopy(0x00, dataOffset(sub_0), dataSize(sub_0))\n  0x00\n  assignImmutable(\"0x646d998f946f968f0675fd4e3cb527e1222094ea0d9cc1fd615146a8fe29802e\")\n  return(0x00, dataSize(sub_0))\nstop\n\nsub_0: assembly {\n        /* \"contracts/FundMe-Project/FundMe.sol\":112:1515  contract FundMe{... */\n      mstore(0x40, 0x80)\n      jumpi(tag_1, lt(calldatasize, 0x04))\n      shr(0xe0, calldataload(0x00))\n      dup1\n      0x3ccfd60b\n      eq\n      tag_3\n      jumpi\n      dup1\n      0x71518544\n      eq\n      tag_4\n      jumpi\n      dup1\n      0x8da5cb5b\n      eq\n      tag_5\n      jumpi\n      dup1\n      0xb60d4288\n      eq\n      tag_6\n      jumpi\n      dup1\n      0xdc0d3dff\n      eq\n      tag_7\n      jumpi\n      dup1\n      0xdc992aa0\n      eq\n      tag_8\n      jumpi\n      jump(tag_2)\n    tag_1:\n      jumpi(tag_2, calldatasize)\n        /* \"contracts/FundMe-Project/FundMe.sol\":1456:1462  fund() */\n      tag_11\n        /* \"contracts/FundMe-Project/FundMe.sol\":1456:1460  fund */\n      tag_12\n        /* \"contracts/FundMe-Project/FundMe.sol\":1456:1462  fund() */\n      jump\t// in\n    tag_11:\n        /* \"contracts/FundMe-Project/FundMe.sol\":112:1515  contract FundMe{... */\n      stop\n    tag_2:\n        /* \"contracts/FundMe-Project/FundMe.sol\":1501:1507  fund() */\n      tag_15\n        /* \"contracts/FundMe-Project/FundMe.sol\":1501:1505  fund */\n      tag_12\n        /* \"contracts/FundMe-Project/FundMe.sol\":1501:1507  fund() */\n      jump\t// in\n    tag_15:\n        /* \"contracts/FundMe-Project/FundMe.sol\":112:1515  contract FundMe{... */\n      stop\n        /* \"contracts/FundMe-Project/FundMe.sol\":756:1330  function withdraw() public onlyOwner{... */\n    tag_3:\n      callvalue\n      dup1\n      iszero\n      tag_16\n      jumpi\n      0x00\n      dup1\n      revert\n    tag_16:\n      pop\n      tag_17\n      tag_18\n      jump\t// in\n    tag_17:\n      stop\n        /* \"contracts/FundMe-Project/FundMe.sol\":315:386  mapping(address funder => uint256 amountSend) public funderToAmountSent */\n    tag_4:\n      callvalue\n      dup1\n      iszero\n      tag_19\n      jumpi\n      0x00\n      dup1\n      revert\n    tag_19:\n      pop\n      tag_20\n      0x04\n      dup1\n      calldatasize\n      sub\n      dup2\n      add\n      swap1\n      tag_21\n      swap2\n      swap1\n      tag_22\n      jump\t// in\n    tag_21:\n      tag_23\n      jump\t// in\n    tag_20:\n      mload(0x40)\n      tag_24\n      swap2\n      swap1\n      tag_25\n      jump\t// in\n    tag_24:\n      mload(0x40)\n      dup1\n      swap2\n      sub\n      swap1\n      return\n        /* \"contracts/FundMe-Project/FundMe.sol\":389:419  address public immutable owner */\n    tag_5:\n      callvalue\n      dup1\n      iszero\n      tag_26\n      jumpi\n      0x00\n      dup1\n      revert\n    tag_26:\n      pop\n      tag_27\n      tag_28\n      jump\t// in\n    tag_27:\n      mload(0x40)\n      tag_29\n      swap2\n      swap1\n      tag_30\n      jump\t// in\n    tag_29:\n      mload(0x40)\n      dup1\n      swap2\n      sub\n      swap1\n      return\n        /* \"contracts/FundMe-Project/FundMe.sol\":466:754  function fund() public payable {... */\n    tag_6:\n      tag_31\n      tag_12\n      jump\t// in\n    tag_31:\n      stop\n        /* \"contracts/FundMe-Project/FundMe.sol\":289:313  address[] public funders */\n    tag_7:\n      callvalue\n      dup1\n      iszero\n      tag_32\n      jumpi\n      0x00\n      dup1\n      revert\n    tag_32:\n      pop\n      tag_33\n      0x04\n      dup1\n      calldatasize\n      sub\n      dup2\n      add\n      swap1\n      tag_34\n      swap2\n      swap1\n      tag_35\n      jump\t// in\n    tag_34:\n      tag_36\n      jump\t// in\n    tag_33:\n      mload(0x40)\n      tag_37\n      swap2\n      swap1\n      tag_30\n      jump\t// in\n    tag_37:\n      mload(0x40)\n      dup1\n      swap2\n      sub\n      swap1\n      return\n        /* \"contracts/FundMe-Project/FundMe.sol\":249:286  uint256 public constant minUSD = 5e18 */\n    tag_8:\n      callvalue\n      dup1\n      iszero\n      tag_38\n      jumpi\n      0x00\n      dup1\n      revert\n    tag_38:\n      pop\n      tag_39\n      tag_40\n      jump\t// in\n    tag_39:\n      mload(0x40)\n      tag_41\n      swap2\n      swap1\n      tag_25\n      jump\t// in\n    tag_41:\n      mload(0x40)\n      dup1\n      swap2\n      sub\n      swap1\n      return\n        /* \"contracts/FundMe-Project/FundMe.sol\":466:754  function fund() public payable {... */\n    tag_12:\n        /* \"contracts/FundMe-Project/FundMe.sol\":282:286  5e18 */\n      0x4563918244f40000\n        /* \"contracts/FundMe-Project/FundMe.sol\":516:545  msg.value.getConversionRate() */\n      tag_43\n        /* \"contracts/FundMe-Project/FundMe.sol\":516:525  msg.value */\n      callvalue\n        /* \"contracts/FundMe-Project/FundMe.sol\":516:543  msg.value.getConversionRate */\n      tag_44\n        /* \"contracts/FundMe-Project/FundMe.sol\":516:545  msg.value.getConversionRate() */\n      jump\t// in\n    tag_43:\n        /* \"contracts/FundMe-Project/FundMe.sol\":516:555  msg.value.getConversionRate() >= minUSD */\n      lt\n      iszero\n        /* \"contracts/FundMe-Project/FundMe.sol\":508:592  require(msg.value.getConversionRate() >= minUSD,\"Please send atleast minimum value\") */\n      tag_45\n      jumpi\n      mload(0x40)\n      0x08c379a000000000000000000000000000000000000000000000000000000000\n      dup2\n      mstore\n      0x04\n      add\n      tag_46\n      swap1\n      tag_47\n      jump\t// in\n    tag_46:\n      mload(0x40)\n      dup1\n      swap2\n      sub\n      swap1\n      revert\n    tag_45:\n        /* \"contracts/FundMe-Project/FundMe.sol\":598:605  funders */\n      0x00\n        /* \"contracts/FundMe-Project/FundMe.sol\":611:621  msg.sender */\n      caller\n        /* \"contracts/FundMe-Project/FundMe.sol\":598:622  funders.push(msg.sender) */\n      swap1\n      dup1\n      0x01\n      dup2\n      sload\n      add\n      dup1\n      dup3\n      sstore\n      dup1\n      swap2\n      pop\n      pop\n      0x01\n      swap1\n      sub\n      swap1\n      0x00\n      mstore\n      keccak256(0x00, 0x20)\n      add\n      0x00\n      swap1\n      swap2\n      swap1\n      swap2\n      swap1\n      swap2\n      0x0100\n      exp\n      dup2\n      sload\n      dup2\n      0xffffffffffffffffffffffffffffffffffffffff\n      mul\n      not\n      and\n      swap1\n      dup4\n      0xffffffffffffffffffffffffffffffffffffffff\n      and\n      mul\n      or\n      swap1\n      sstore\n      pop\n        /* \"contracts/FundMe-Project/FundMe.sol\":662:671  msg.value */\n      callvalue\n        /* \"contracts/FundMe-Project/FundMe.sol\":628:646  funderToAmountSent */\n      0x01\n        /* \"contracts/FundMe-Project/FundMe.sol\":628:658  funderToAmountSent[msg.sender] */\n      0x00\n        /* \"contracts/FundMe-Project/FundMe.sol\":647:657  msg.sender */\n      caller\n        /* \"contracts/FundMe-Project/FundMe.sol\":628:658  funderToAmountSent[msg.sender] */\n      0xffffffffffffffffffffffffffffffffffffffff\n      and\n      0xffffffffffffffffffffffffffffffffffffffff\n      and\n      dup2\n      mstore\n      0x20\n      add\n      swap1\n      dup2\n      mstore\n      0x20\n      add\n      0x00\n      keccak256\n      0x00\n        /* \"contracts/FundMe-Project/FundMe.sol\":628:671  funderToAmountSent[msg.sender] += msg.value */\n      dup3\n      dup3\n      sload\n      tag_49\n      swap2\n      swap1\n      tag_50\n      jump\t// in\n    tag_49:\n      swap3\n      pop\n      pop\n      dup2\n      swap1\n      sstore\n      pop\n        /* \"contracts/FundMe-Project/FundMe.sol\":466:754  function fund() public payable {... */\n      jump\t// out\n        /* \"contracts/FundMe-Project/FundMe.sol\":756:1330  function withdraw() public onlyOwner{... */\n    tag_18:\n        /* \"contracts/FundMe-Project/FundMe.sol\":1381:1386  owner */\n      immutable(\"0x646d998f946f968f0675fd4e3cb527e1222094ea0d9cc1fd615146a8fe29802e\")\n        /* \"contracts/FundMe-Project/FundMe.sol\":1367:1386  msg.sender == owner */\n      0xffffffffffffffffffffffffffffffffffffffff\n      and\n        /* \"contracts/FundMe-Project/FundMe.sol\":1367:1377  msg.sender */\n      caller\n        /* \"contracts/FundMe-Project/FundMe.sol\":1367:1386  msg.sender == owner */\n      0xffffffffffffffffffffffffffffffffffffffff\n      and\n      eq\n        /* \"contracts/FundMe-Project/FundMe.sol\":1359:1409  require(msg.sender == owner,\"Sender is not owner\") */\n      tag_52\n      jumpi\n      mload(0x40)\n      0x08c379a000000000000000000000000000000000000000000000000000000000\n      dup2\n      mstore\n      0x04\n      add\n      tag_53\n      swap1\n      tag_54\n      jump\t// in\n    tag_53:\n      mload(0x40)\n      dup1\n      swap2\n      sub\n      swap1\n      revert\n    tag_52:\n        /* \"contracts/FundMe-Project/FundMe.sol\":802:821  uint256 funderIndex */\n      0x00\n        /* \"contracts/FundMe-Project/FundMe.sol\":798:963  for(uint256 funderIndex=0; funderIndex < funders.length; funderIndex++){... */\n    tag_56:\n        /* \"contracts/FundMe-Project/FundMe.sol\":839:846  funders */\n      0x00\n        /* \"contracts/FundMe-Project/FundMe.sol\":839:853  funders.length */\n      dup1\n      sload\n      swap1\n      pop\n        /* \"contracts/FundMe-Project/FundMe.sol\":825:836  funderIndex */\n      dup2\n        /* \"contracts/FundMe-Project/FundMe.sol\":825:853  funderIndex < funders.length */\n      lt\n        /* \"contracts/FundMe-Project/FundMe.sol\":798:963  for(uint256 funderIndex=0; funderIndex < funders.length; funderIndex++){... */\n      iszero\n      tag_57\n      jumpi\n        /* \"contracts/FundMe-Project/FundMe.sol\":879:893  address funder */\n      0x00\n        /* \"contracts/FundMe-Project/FundMe.sol\":896:903  funders */\n      dup1\n        /* \"contracts/FundMe-Project/FundMe.sol\":904:915  funderIndex */\n      dup3\n        /* \"contracts/FundMe-Project/FundMe.sol\":896:916  funders[funderIndex] */\n      dup2\n      sload\n      dup2\n      lt\n      tag_59\n      jumpi\n      tag_60\n      tag_61\n      jump\t// in\n    tag_60:\n    tag_59:\n      swap1\n      0x00\n      mstore\n      keccak256(0x00, 0x20)\n      add\n      0x00\n      swap1\n      sload\n      swap1\n      0x0100\n      exp\n      swap1\n      div\n      0xffffffffffffffffffffffffffffffffffffffff\n      and\n        /* \"contracts/FundMe-Project/FundMe.sol\":879:916  address funder = funders[funderIndex] */\n      swap1\n      pop\n        /* \"contracts/FundMe-Project/FundMe.sol\":955:956  0 */\n      0x00\n        /* \"contracts/FundMe-Project/FundMe.sol\":926:944  funderToAmountSent */\n      0x01\n        /* \"contracts/FundMe-Project/FundMe.sol\":926:952  funderToAmountSent[funder] */\n      0x00\n        /* \"contracts/FundMe-Project/FundMe.sol\":945:951  funder */\n      dup4\n        /* \"contracts/FundMe-Project/FundMe.sol\":926:952  funderToAmountSent[funder] */\n      0xffffffffffffffffffffffffffffffffffffffff\n      and\n      0xffffffffffffffffffffffffffffffffffffffff\n      and\n      dup2\n      mstore\n      0x20\n      add\n      swap1\n      dup2\n      mstore\n      0x20\n      add\n      0x00\n      keccak256\n        /* \"contracts/FundMe-Project/FundMe.sol\":926:956  funderToAmountSent[funder] = 0 */\n      dup2\n      swap1\n      sstore\n      pop\n        /* \"contracts/FundMe-Project/FundMe.sol\":869:963  {... */\n      pop\n        /* \"contracts/FundMe-Project/FundMe.sol\":855:868  funderIndex++ */\n      dup1\n      dup1\n      0x01\n      add\n      swap2\n      pop\n      pop\n        /* \"contracts/FundMe-Project/FundMe.sol\":798:963  for(uint256 funderIndex=0; funderIndex < funders.length; funderIndex++){... */\n      jump(tag_56)\n    tag_57:\n      pop\n        /* \"contracts/FundMe-Project/FundMe.sol\":992:993  0 */\n      0x00\n        /* \"contracts/FundMe-Project/FundMe.sol\":978:994  new address[](0) */\n      0xffffffffffffffff\n      dup2\n      gt\n      iszero\n      tag_63\n      jumpi\n      tag_64\n      tag_65\n      jump\t// in\n    tag_64:\n    tag_63:\n      mload(0x40)\n      swap1\n      dup1\n      dup3\n      mstore\n      dup1\n      0x20\n      mul\n      0x20\n      add\n      dup3\n      add\n      0x40\n      mstore\n      dup1\n      iszero\n      tag_66\n      jumpi\n      dup2\n      0x20\n      add\n      0x20\n      dup3\n      mul\n      dup1\n      calldatasize\n      dup4\n      calldatacopy\n      dup1\n      dup3\n      add\n      swap2\n      pop\n      pop\n      swap1\n      pop\n    tag_66:\n      pop\n        /* \"contracts/FundMe-Project/FundMe.sol\":968:975  funders */\n      0x00\n        /* \"contracts/FundMe-Project/FundMe.sol\":968:994  funders = new address[](0) */\n      swap1\n      dup1\n      mload\n      swap1\n      0x20\n      add\n      swap1\n      tag_67\n      swap3\n      swap2\n      swap1\n      tag_68\n      jump\t// in\n    tag_67:\n      pop\n        /* \"contracts/FundMe-Project/FundMe.sol\":1211:1227  bool callSuccess */\n      0x00\n        /* \"contracts/FundMe-Project/FundMe.sol\":1242:1252  msg.sender */\n      caller\n        /* \"contracts/FundMe-Project/FundMe.sol\":1234:1258  payable(msg.sender).call */\n      0xffffffffffffffffffffffffffffffffffffffff\n      and\n        /* \"contracts/FundMe-Project/FundMe.sol\":1266:1287  address(this).balance */\n      selfbalance\n        /* \"contracts/FundMe-Project/FundMe.sol\":1234:1292  payable(msg.sender).call{value: address(this).balance}(\"\") */\n      mload(0x40)\n      tag_69\n      swap1\n      tag_70\n      jump\t// in\n    tag_69:\n      0x00\n      mload(0x40)\n      dup1\n      dup4\n      sub\n      dup2\n      dup6\n      dup8\n      gas\n      call\n      swap3\n      pop\n      pop\n      pop\n      returndatasize\n      dup1\n      0x00\n      dup2\n      eq\n      tag_73\n      jumpi\n      mload(0x40)\n      swap2\n      pop\n      and(add(returndatasize, 0x3f), not(0x1f))\n      dup3\n      add\n      0x40\n      mstore\n      returndatasize\n      dup3\n      mstore\n      returndatasize\n      0x00\n      0x20\n      dup5\n      add\n      returndatacopy\n      jump(tag_72)\n    tag_73:\n      0x60\n      swap2\n      pop\n    tag_72:\n      pop\n        /* \"contracts/FundMe-Project/FundMe.sol\":1210:1292  (bool callSuccess , ) = payable(msg.sender).call{value: address(this).balance}(\"\") */\n      pop\n      swap1\n      pop\n        /* \"contracts/FundMe-Project/FundMe.sol\":1306:1317  callSuccess */\n      dup1\n        /* \"contracts/FundMe-Project/FundMe.sol\":1298:1327  require(callSuccess,\"failed\") */\n      tag_74\n      jumpi\n      mload(0x40)\n      0x08c379a000000000000000000000000000000000000000000000000000000000\n      dup2\n      mstore\n      0x04\n      add\n      tag_75\n      swap1\n      tag_76\n      jump\t// in\n    tag_75:\n      mload(0x40)\n      dup1\n      swap2\n      sub\n      swap1\n      revert\n    tag_74:\n        /* \"contracts/FundMe-Project/FundMe.sol\":792:1330  {... */\n      pop\n        /* \"contracts/FundMe-Project/FundMe.sol\":756:1330  function withdraw() public onlyOwner{... */\n      jump\t// out\n        /* \"contracts/FundMe-Project/FundMe.sol\":315:386  mapping(address funder => uint256 amountSend) public funderToAmountSent */\n    tag_23:\n      mstore(0x20, 0x01)\n      dup1\n      0x00\n      mstore\n      keccak256(0x00, 0x40)\n      0x00\n      swap2\n      pop\n      swap1\n      pop\n      sload\n      dup2\n      jump\t// out\n        /* \"contracts/FundMe-Project/FundMe.sol\":389:419  address public immutable owner */\n    tag_28:\n      immutable(\"0x646d998f946f968f0675fd4e3cb527e1222094ea0d9cc1fd615146a8fe29802e\")\n      dup2\n      jump\t// out\n        /* \"contracts/FundMe-Project/FundMe.sol\":289:313  address[] public funders */\n    tag_36:\n      0x00\n      dup2\n      dup2\n      sload\n      dup2\n      lt\n      tag_77\n      jumpi\n      0x00\n      dup1\n      revert\n    tag_77:\n      swap1\n      0x00\n      mstore\n      keccak256(0x00, 0x20)\n      add\n      0x00\n      swap2\n      pop\n      sload\n      swap1\n      0x0100\n      exp\n      swap1\n      div\n      0xffffffffffffffffffffffffffffffffffffffff\n      and\n      dup2\n      jump\t// out\n        /* \"contracts/FundMe-Project/FundMe.sol\":249:286  uint256 public constant minUSD = 5e18 */\n    tag_40:\n        /* \"contracts/FundMe-Project/FundMe.sol\":282:286  5e18 */\n      0x4563918244f40000\n        /* \"contracts/FundMe-Project/FundMe.sol\":249:286  uint256 public constant minUSD = 5e18 */\n      dup2\n      jump\t// out\n        /* \"contracts/FundMe-Project/PriceConverter.sol\":546:791  function getConversionRate(uint256 ethAmount) internal view returns(uint256){... */\n    tag_44:\n        /* \"contracts/FundMe-Project/PriceConverter.sol\":614:621  uint256 */\n      0x00\n        /* \"contracts/FundMe-Project/PriceConverter.sol\":671:687  uint256 ethPrice */\n      dup1\n        /* \"contracts/FundMe-Project/PriceConverter.sol\":690:700  getPrice() */\n      tag_80\n        /* \"contracts/FundMe-Project/PriceConverter.sol\":690:698  getPrice */\n      tag_81\n        /* \"contracts/FundMe-Project/PriceConverter.sol\":690:700  getPrice() */\n      jump\t// in\n    tag_80:\n        /* \"contracts/FundMe-Project/PriceConverter.sol\":671:700  uint256 ethPrice = getPrice() */\n      swap1\n      pop\n        /* \"contracts/FundMe-Project/PriceConverter.sol\":706:728  uint256 ethAmountInUsd */\n      0x00\n        /* \"contracts/FundMe-Project/PriceConverter.sol\":756:760  1e18 */\n      0x0de0b6b3a7640000\n        /* \"contracts/FundMe-Project/PriceConverter.sol\":743:752  ethAmount */\n      dup5\n        /* \"contracts/FundMe-Project/PriceConverter.sol\":732:740  ethPrice */\n      dup4\n        /* \"contracts/FundMe-Project/PriceConverter.sol\":732:752  ethPrice * ethAmount */\n      tag_82\n      swap2\n      swap1\n      tag_83\n      jump\t// in\n    tag_82:\n        /* \"contracts/FundMe-Project/PriceConverter.sol\":731:760  (ethPrice * ethAmount) / 1e18 */\n      tag_84\n      swap2\n      swap1\n      tag_85\n      jump\t// in\n    tag_84:\n        /* \"contracts/FundMe-Project/PriceConverter.sol\":706:760  uint256 ethAmountInUsd = (ethPrice * ethAmount) / 1e18 */\n      swap1\n      pop\n        /* \"contracts/FundMe-Project/PriceConverter.sol\":774:788  ethAmountInUsd */\n      dup1\n        /* \"contracts/FundMe-Project/PriceConverter.sol\":767:788  return ethAmountInUsd */\n      swap3\n      pop\n      pop\n      pop\n        /* \"contracts/FundMe-Project/PriceConverter.sol\":546:791  function getConversionRate(uint256 ethAmount) internal view returns(uint256){... */\n      swap2\n      swap1\n      pop\n      jump\t// out\n        /* \"contracts/FundMe-Project/PriceConverter.sol\":197:544  function getPrice() internal view returns(uint256){... */\n    tag_81:\n        /* \"contracts/FundMe-Project/PriceConverter.sol\":239:246  uint256 */\n      0x00\n        /* \"contracts/FundMe-Project/PriceConverter.sol\":311:342  AggregatorV3Interface priceFeed */\n      dup1\n        /* \"contracts/FundMe-Project/PriceConverter.sol\":367:409  0x694AA1769357215DE4FAC081bf1f309aDC325306 */\n      0x694aa1769357215de4fac081bf1f309adc325306\n        /* \"contracts/FundMe-Project/PriceConverter.sol\":311:410  AggregatorV3Interface priceFeed = AggregatorV3Interface(0x694AA1769357215DE4FAC081bf1f309aDC325306) */\n      swap1\n      pop\n        /* \"contracts/FundMe-Project/PriceConverter.sol\":420:432  int256 price */\n      0x00\n        /* \"contracts/FundMe-Project/PriceConverter.sol\":442:451  priceFeed */\n      dup2\n        /* \"contracts/FundMe-Project/PriceConverter.sol\":442:467  priceFeed.latestRoundData */\n      0xffffffffffffffffffffffffffffffffffffffff\n      and\n      0xfeaf968c\n        /* \"contracts/FundMe-Project/PriceConverter.sol\":442:469  priceFeed.latestRoundData() */\n      mload(0x40)\n      dup2\n      0xffffffff\n      and\n      0xe0\n      shl\n      dup2\n      mstore\n      0x04\n      add\n      0xa0\n      mload(0x40)\n      dup1\n      dup4\n      sub\n      dup2\n      dup7\n      gas\n      staticcall\n      iszero\n      dup1\n      iszero\n      tag_88\n      jumpi\n      returndatasize\n      0x00\n      dup1\n      returndatacopy\n      revert(0x00, returndatasize)\n    tag_88:\n      pop\n      pop\n      pop\n      pop\n      mload(0x40)\n      returndatasize\n      not(0x1f)\n      0x1f\n      dup3\n      add\n      and\n      dup3\n      add\n      dup1\n      0x40\n      mstore\n      pop\n      dup2\n      add\n      swap1\n      tag_89\n      swap2\n      swap1\n      tag_90\n      jump\t// in\n    tag_89:\n        /* \"contracts/FundMe-Project/PriceConverter.sol\":417:469  (, int256 price, , , ) = priceFeed.latestRoundData() */\n      pop\n      pop\n      pop\n      swap2\n      pop\n      pop\n        /* \"contracts/FundMe-Project/PriceConverter.sol\":536:540  1e10 */\n      0x02540be400\n        /* \"contracts/FundMe-Project/PriceConverter.sol\":528:533  price */\n      dup2\n        /* \"contracts/FundMe-Project/PriceConverter.sol\":528:540  price * 1e10 */\n      tag_91\n      swap2\n      swap1\n      tag_92\n      jump\t// in\n    tag_91:\n        /* \"contracts/FundMe-Project/PriceConverter.sol\":513:541  return uint256(price * 1e10) */\n      swap3\n      pop\n      pop\n      pop\n        /* \"contracts/FundMe-Project/PriceConverter.sol\":197:544  function getPrice() internal view returns(uint256){... */\n      swap1\n      jump\t// out\n    tag_68:\n      dup3\n      dup1\n      sload\n      dup3\n      dup3\n      sstore\n      swap1\n      0x00\n      mstore\n      keccak256(0x00, 0x20)\n      swap1\n      dup2\n      add\n      swap3\n      dup3\n      iszero\n      tag_93\n      jumpi\n      swap2\n      0x20\n      mul\n      dup3\n      add\n    tag_94:\n      dup3\n      dup2\n      gt\n      iszero\n      tag_95\n      jumpi\n      dup3\n      mload\n      dup3\n      exp(0x0100, 0x00)\n      dup2\n      sload\n      dup2\n      0xffffffffffffffffffffffffffffffffffffffff\n      mul\n      not\n      and\n      swap1\n      dup4\n      0xffffffffffffffffffffffffffffffffffffffff\n      and\n      mul\n      or\n      swap1\n      sstore\n      pop\n      swap2\n      0x20\n      add\n      swap2\n      swap1\n      0x01\n      add\n      swap1\n      jump(tag_94)\n    tag_95:\n    tag_93:\n      pop\n      swap1\n      pop\n      tag_96\n      swap2\n      swap1\n      tag_97\n      jump\t// in\n    tag_96:\n      pop\n      swap1\n      jump\t// out\n    tag_97:\n    tag_98:\n      dup1\n      dup3\n      gt\n      iszero\n      tag_99\n      jumpi\n      0x00\n      dup2\n      0x00\n      swap1\n      sstore\n      pop\n      0x01\n      add\n      jump(tag_98)\n    tag_99:\n      pop\n      swap1\n      jump\t// out\n        /* \"#utility.yul\":88:205   */\n    tag_101:\n        /* \"#utility.yul\":197:198   */\n      0x00\n        /* \"#utility.yul\":194:195   */\n      dup1\n        /* \"#utility.yul\":187:199   */\n      revert\n        /* \"#utility.yul\":334:460   */\n    tag_103:\n        /* \"#utility.yul\":371:378   */\n      0x00\n        /* \"#utility.yul\":411:453   */\n      0xffffffffffffffffffffffffffffffffffffffff\n        /* \"#utility.yul\":404:409   */\n      dup3\n        /* \"#utility.yul\":400:454   */\n      and\n        /* \"#utility.yul\":389:454   */\n      swap1\n      pop\n        /* \"#utility.yul\":334:460   */\n      swap2\n      swap1\n      pop\n      jump\t// out\n        /* \"#utility.yul\":466:562   */\n    tag_104:\n        /* \"#utility.yul\":503:510   */\n      0x00\n        /* \"#utility.yul\":532:556   */\n      tag_137\n        /* \"#utility.yul\":550:555   */\n      dup3\n        /* \"#utility.yul\":532:556   */\n      tag_103\n      jump\t// in\n    tag_137:\n        /* \"#utility.yul\":521:556   */\n      swap1\n      pop\n        /* \"#utility.yul\":466:562   */\n      swap2\n      swap1\n      pop\n      jump\t// out\n        /* \"#utility.yul\":568:690   */\n    tag_105:\n        /* \"#utility.yul\":641:665   */\n      tag_139\n        /* \"#utility.yul\":659:664   */\n      dup2\n        /* \"#utility.yul\":641:665   */\n      tag_104\n      jump\t// in\n    tag_139:\n        /* \"#utility.yul\":634:639   */\n      dup2\n        /* \"#utility.yul\":631:666   */\n      eq\n        /* \"#utility.yul\":621:684   */\n      tag_140\n      jumpi\n        /* \"#utility.yul\":680:681   */\n      0x00\n        /* \"#utility.yul\":677:678   */\n      dup1\n        /* \"#utility.yul\":670:682   */\n      revert\n        /* \"#utility.yul\":621:684   */\n    tag_140:\n        /* \"#utility.yul\":568:690   */\n      pop\n      jump\t// out\n        /* \"#utility.yul\":696:835   */\n    tag_106:\n        /* \"#utility.yul\":742:747   */\n      0x00\n        /* \"#utility.yul\":780:786   */\n      dup2\n        /* \"#utility.yul\":767:787   */\n      calldataload\n        /* \"#utility.yul\":758:787   */\n      swap1\n      pop\n        /* \"#utility.yul\":796:829   */\n      tag_142\n        /* \"#utility.yul\":823:828   */\n      dup2\n        /* \"#utility.yul\":796:829   */\n      tag_105\n      jump\t// in\n    tag_142:\n        /* \"#utility.yul\":696:835   */\n      swap3\n      swap2\n      pop\n      pop\n      jump\t// out\n        /* \"#utility.yul\":841:1170   */\n    tag_22:\n        /* \"#utility.yul\":900:906   */\n      0x00\n        /* \"#utility.yul\":949:951   */\n      0x20\n        /* \"#utility.yul\":937:946   */\n      dup3\n        /* \"#utility.yul\":928:935   */\n      dup5\n        /* \"#utility.yul\":924:947   */\n      sub\n        /* \"#utility.yul\":920:952   */\n      slt\n        /* \"#utility.yul\":917:1036   */\n      iszero\n      tag_144\n      jumpi\n        /* \"#utility.yul\":955:1034   */\n      tag_145\n      tag_101\n      jump\t// in\n    tag_145:\n        /* \"#utility.yul\":917:1036   */\n    tag_144:\n        /* \"#utility.yul\":1075:1076   */\n      0x00\n        /* \"#utility.yul\":1100:1153   */\n      tag_146\n        /* \"#utility.yul\":1145:1152   */\n      dup5\n        /* \"#utility.yul\":1136:1142   */\n      dup3\n        /* \"#utility.yul\":1125:1134   */\n      dup6\n        /* \"#utility.yul\":1121:1143   */\n      add\n        /* \"#utility.yul\":1100:1153   */\n      tag_106\n      jump\t// in\n    tag_146:\n        /* \"#utility.yul\":1090:1153   */\n      swap2\n      pop\n        /* \"#utility.yul\":1046:1163   */\n      pop\n        /* \"#utility.yul\":841:1170   */\n      swap3\n      swap2\n      pop\n      pop\n      jump\t// out\n        /* \"#utility.yul\":1176:1253   */\n    tag_107:\n        /* \"#utility.yul\":1213:1220   */\n      0x00\n        /* \"#utility.yul\":1242:1247   */\n      dup2\n        /* \"#utility.yul\":1231:1247   */\n      swap1\n      pop\n        /* \"#utility.yul\":1176:1253   */\n      swap2\n      swap1\n      pop\n      jump\t// out\n        /* \"#utility.yul\":1259:1377   */\n    tag_108:\n        /* \"#utility.yul\":1346:1370   */\n      tag_149\n        /* \"#utility.yul\":1364:1369   */\n      dup2\n        /* \"#utility.yul\":1346:1370   */\n      tag_107\n      jump\t// in\n    tag_149:\n        /* \"#utility.yul\":1341:1344   */\n      dup3\n        /* \"#utility.yul\":1334:1371   */\n      mstore\n        /* \"#utility.yul\":1259:1377   */\n      pop\n      pop\n      jump\t// out\n        /* \"#utility.yul\":1383:1605   */\n    tag_25:\n        /* \"#utility.yul\":1476:1480   */\n      0x00\n        /* \"#utility.yul\":1514:1516   */\n      0x20\n        /* \"#utility.yul\":1503:1512   */\n      dup3\n        /* \"#utility.yul\":1499:1517   */\n      add\n        /* \"#utility.yul\":1491:1517   */\n      swap1\n      pop\n        /* \"#utility.yul\":1527:1598   */\n      tag_151\n        /* \"#utility.yul\":1595:1596   */\n      0x00\n        /* \"#utility.yul\":1584:1593   */\n      dup4\n        /* \"#utility.yul\":1580:1597   */\n      add\n        /* \"#utility.yul\":1571:1577   */\n      dup5\n        /* \"#utility.yul\":1527:1598   */\n      tag_108\n      jump\t// in\n    tag_151:\n        /* \"#utility.yul\":1383:1605   */\n      swap3\n      swap2\n      pop\n      pop\n      jump\t// out\n        /* \"#utility.yul\":1611:1729   */\n    tag_109:\n        /* \"#utility.yul\":1698:1722   */\n      tag_153\n        /* \"#utility.yul\":1716:1721   */\n      dup2\n        /* \"#utility.yul\":1698:1722   */\n      tag_104\n      jump\t// in\n    tag_153:\n        /* \"#utility.yul\":1693:1696   */\n      dup3\n        /* \"#utility.yul\":1686:1723   */\n      mstore\n        /* \"#utility.yul\":1611:1729   */\n      pop\n      pop\n      jump\t// out\n        /* \"#utility.yul\":1735:1957   */\n    tag_30:\n        /* \"#utility.yul\":1828:1832   */\n      0x00\n        /* \"#utility.yul\":1866:1868   */\n      0x20\n        /* \"#utility.yul\":1855:1864   */\n      dup3\n        /* \"#utility.yul\":1851:1869   */\n      add\n        /* \"#utility.yul\":1843:1869   */\n      swap1\n      pop\n        /* \"#utility.yul\":1879:1950   */\n      tag_155\n        /* \"#utility.yul\":1947:1948   */\n      0x00\n        /* \"#utility.yul\":1936:1945   */\n      dup4\n        /* \"#utility.yul\":1932:1949   */\n      add\n        /* \"#utility.yul\":1923:1929   */\n      dup5\n        /* \"#utility.yul\":1879:1950   */\n      tag_109\n      jump\t// in\n    tag_155:\n        /* \"#utility.yul\":1735:1957   */\n      swap3\n      swap2\n      pop\n      pop\n      jump\t// out\n        /* \"#utility.yul\":1963:2085   */\n    tag_110:\n        /* \"#utility.yul\":2036:2060   */\n      tag_157\n        /* \"#utility.yul\":2054:2059   */\n      dup2\n        /* \"#utility.yul\":2036:2060   */\n      tag_107\n      jump\t// in\n    tag_157:\n        /* \"#utility.yul\":2029:2034   */\n      dup2\n        /* \"#utility.yul\":2026:2061   */\n      eq\n        /* \"#utility.yul\":2016:2079   */\n      tag_158\n      jumpi\n        /* \"#utility.yul\":2075:2076   */\n      0x00\n        /* \"#utility.yul\":2072:2073   */\n      dup1\n        /* \"#utility.yul\":2065:2077   */\n      revert\n        /* \"#utility.yul\":2016:2079   */\n    tag_158:\n        /* \"#utility.yul\":1963:2085   */\n      pop\n      jump\t// out\n        /* \"#utility.yul\":2091:2230   */\n    tag_111:\n        /* \"#utility.yul\":2137:2142   */\n      0x00\n        /* \"#utility.yul\":2175:2181   */\n      dup2\n        /* \"#utility.yul\":2162:2182   */\n      calldataload\n        /* \"#utility.yul\":2153:2182   */\n      swap1\n      pop\n        /* \"#utility.yul\":2191:2224   */\n      tag_160\n        /* \"#utility.yul\":2218:2223   */\n      dup2\n        /* \"#utility.yul\":2191:2224   */\n      tag_110\n      jump\t// in\n    tag_160:\n        /* \"#utility.yul\":2091:2230   */\n      swap3\n      swap2\n      pop\n      pop\n      jump\t// out\n        /* \"#utility.yul\":2236:2565   */\n    tag_35:\n        /* \"#utility.yul\":2295:2301   */\n      0x00\n        /* \"#utility.yul\":2344:2346   */\n      0x20\n        /* \"#utility.yul\":2332:2341   */\n      dup3\n        /* \"#utility.yul\":2323:2330   */\n      dup5\n        /* \"#utility.yul\":2319:2342   */\n      sub\n        /* \"#utility.yul\":2315:2347   */\n      slt\n        /* \"#utility.yul\":2312:2431   */\n      iszero\n      tag_162\n      jumpi\n        /* \"#utility.yul\":2350:2429   */\n      tag_163\n      tag_101\n      jump\t// in\n    tag_163:\n        /* \"#utility.yul\":2312:2431   */\n    tag_162:\n        /* \"#utility.yul\":2470:2471   */\n      0x00\n        /* \"#utility.yul\":2495:2548   */\n      tag_164\n        /* \"#utility.yul\":2540:2547   */\n      dup5\n        /* \"#utility.yul\":2531:2537   */\n      dup3\n        /* \"#utility.yul\":2520:2529   */\n      dup6\n        /* \"#utility.yul\":2516:2538   */\n      add\n        /* \"#utility.yul\":2495:2548   */\n      tag_111\n      jump\t// in\n    tag_164:\n        /* \"#utility.yul\":2485:2548   */\n      swap2\n      pop\n        /* \"#utility.yul\":2441:2558   */\n      pop\n        /* \"#utility.yul\":2236:2565   */\n      swap3\n      swap2\n      pop\n      pop\n      jump\t// out\n        /* \"#utility.yul\":2571:2740   */\n    tag_112:\n        /* \"#utility.yul\":2655:2666   */\n      0x00\n        /* \"#utility.yul\":2689:2695   */\n      dup3\n        /* \"#utility.yul\":2684:2687   */\n      dup3\n        /* \"#utility.yul\":2677:2696   */\n      mstore\n        /* \"#utility.yul\":2729:2733   */\n      0x20\n        /* \"#utility.yul\":2724:2727   */\n      dup3\n        /* \"#utility.yul\":2720:2734   */\n      add\n        /* \"#utility.yul\":2705:2734   */\n      swap1\n      pop\n        /* \"#utility.yul\":2571:2740   */\n      swap3\n      swap2\n      pop\n      pop\n      jump\t// out\n        /* \"#utility.yul\":2746:2966   */\n    tag_113:\n        /* \"#utility.yul\":2886:2920   */\n      0x506c656173652073656e642061746c65617374206d696e696d756d2076616c75\n        /* \"#utility.yul\":2882:2883   */\n      0x00\n        /* \"#utility.yul\":2874:2880   */\n      dup3\n        /* \"#utility.yul\":2870:2884   */\n      add\n        /* \"#utility.yul\":2863:2921   */\n      mstore\n        /* \"#utility.yul\":2955:2958   */\n      0x6500000000000000000000000000000000000000000000000000000000000000\n        /* \"#utility.yul\":2950:2952   */\n      0x20\n        /* \"#utility.yul\":2942:2948   */\n      dup3\n        /* \"#utility.yul\":2938:2953   */\n      add\n        /* \"#utility.yul\":2931:2959   */\n      mstore\n        /* \"#utility.yul\":2746:2966   */\n      pop\n      jump\t// out\n        /* \"#utility.yul\":2972:3338   */\n    tag_114:\n        /* \"#utility.yul\":3114:3117   */\n      0x00\n        /* \"#utility.yul\":3135:3202   */\n      tag_168\n        /* \"#utility.yul\":3199:3201   */\n      0x21\n        /* \"#utility.yul\":3194:3197   */\n      dup4\n        /* \"#utility.yul\":3135:3202   */\n      tag_112\n      jump\t// in\n    tag_168:\n        /* \"#utility.yul\":3128:3202   */\n      swap2\n      pop\n        /* \"#utility.yul\":3211:3304   */\n      tag_169\n        /* \"#utility.yul\":3300:3303   */\n      dup3\n        /* \"#utility.yul\":3211:3304   */\n      tag_113\n      jump\t// in\n    tag_169:\n        /* \"#utility.yul\":3329:3331   */\n      0x40\n        /* \"#utility.yul\":3324:3327   */\n      dup3\n        /* \"#utility.yul\":3320:3332   */\n      add\n        /* \"#utility.yul\":3313:3332   */\n      swap1\n      pop\n        /* \"#utility.yul\":2972:3338   */\n      swap2\n      swap1\n      pop\n      jump\t// out\n        /* \"#utility.yul\":3344:3763   */\n    tag_47:\n        /* \"#utility.yul\":3510:3514   */\n      0x00\n        /* \"#utility.yul\":3548:3550   */\n      0x20\n        /* \"#utility.yul\":3537:3546   */\n      dup3\n        /* \"#utility.yul\":3533:3551   */\n      add\n        /* \"#utility.yul\":3525:3551   */\n      swap1\n      pop\n        /* \"#utility.yul\":3597:3606   */\n      dup2\n        /* \"#utility.yul\":3591:3595   */\n      dup2\n        /* \"#utility.yul\":3587:3607   */\n      sub\n        /* \"#utility.yul\":3583:3584   */\n      0x00\n        /* \"#utility.yul\":3572:3581   */\n      dup4\n        /* \"#utility.yul\":3568:3585   */\n      add\n        /* \"#utility.yul\":3561:3608   */\n      mstore\n        /* \"#utility.yul\":3625:3756   */\n      tag_171\n        /* \"#utility.yul\":3751:3755   */\n      dup2\n        /* \"#utility.yul\":3625:3756   */\n      tag_114\n      jump\t// in\n    tag_171:\n        /* \"#utility.yul\":3617:3756   */\n      swap1\n      pop\n        /* \"#utility.yul\":3344:3763   */\n      swap2\n      swap1\n      pop\n      jump\t// out\n        /* \"#utility.yul\":3769:3949   */\n    tag_115:\n        /* \"#utility.yul\":3817:3894   */\n      0x4e487b7100000000000000000000000000000000000000000000000000000000\n        /* \"#utility.yul\":3814:3815   */\n      0x00\n        /* \"#utility.yul\":3807:3895   */\n      mstore\n        /* \"#utility.yul\":3914:3918   */\n      0x11\n        /* \"#utility.yul\":3911:3912   */\n      0x04\n        /* \"#utility.yul\":3904:3919   */\n      mstore\n        /* \"#utility.yul\":3938:3942   */\n      0x24\n        /* \"#utility.yul\":3935:3936   */\n      0x00\n        /* \"#utility.yul\":3928:3943   */\n      revert\n        /* \"#utility.yul\":3955:4146   */\n    tag_50:\n        /* \"#utility.yul\":3995:3998   */\n      0x00\n        /* \"#utility.yul\":4014:4034   */\n      tag_174\n        /* \"#utility.yul\":4032:4033   */\n      dup3\n        /* \"#utility.yul\":4014:4034   */\n      tag_107\n      jump\t// in\n    tag_174:\n        /* \"#utility.yul\":4009:4034   */\n      swap2\n      pop\n        /* \"#utility.yul\":4048:4068   */\n      tag_175\n        /* \"#utility.yul\":4066:4067   */\n      dup4\n        /* \"#utility.yul\":4048:4068   */\n      tag_107\n      jump\t// in\n    tag_175:\n        /* \"#utility.yul\":4043:4068   */\n      swap3\n      pop\n        /* \"#utility.yul\":4091:4092   */\n      dup3\n        /* \"#utility.yul\":4088:4089   */\n      dup3\n        /* \"#utility.yul\":4084:4093   */\n      add\n        /* \"#utility.yul\":4077:4093   */\n      swap1\n      pop\n        /* \"#utility.yul\":4112:4115   */\n      dup1\n        /* \"#utility.yul\":4109:4110   */\n      dup3\n        /* \"#utility.yul\":4106:4116   */\n      gt\n        /* \"#utility.yul\":4103:4139   */\n      iszero\n      tag_176\n      jumpi\n        /* \"#utility.yul\":4119:4137   */\n      tag_177\n      tag_115\n      jump\t// in\n    tag_177:\n        /* \"#utility.yul\":4103:4139   */\n    tag_176:\n        /* \"#utility.yul\":3955:4146   */\n      swap3\n      swap2\n      pop\n      pop\n      jump\t// out\n        /* \"#utility.yul\":4152:4321   */\n    tag_116:\n        /* \"#utility.yul\":4292:4313   */\n      0x53656e646572206973206e6f74206f776e657200000000000000000000000000\n        /* \"#utility.yul\":4288:4289   */\n      0x00\n        /* \"#utility.yul\":4280:4286   */\n      dup3\n        /* \"#utility.yul\":4276:4290   */\n      add\n        /* \"#utility.yul\":4269:4314   */\n      mstore\n        /* \"#utility.yul\":4152:4321   */\n      pop\n      jump\t// out\n        /* \"#utility.yul\":4327:4693   */\n    tag_117:\n        /* \"#utility.yul\":4469:4472   */\n      0x00\n        /* \"#utility.yul\":4490:4557   */\n      tag_180\n        /* \"#utility.yul\":4554:4556   */\n      0x13\n        /* \"#utility.yul\":4549:4552   */\n      dup4\n        /* \"#utility.yul\":4490:4557   */\n      tag_112\n      jump\t// in\n    tag_180:\n        /* \"#utility.yul\":4483:4557   */\n      swap2\n      pop\n        /* \"#utility.yul\":4566:4659   */\n      tag_181\n        /* \"#utility.yul\":4655:4658   */\n      dup3\n        /* \"#utility.yul\":4566:4659   */\n      tag_116\n      jump\t// in\n    tag_181:\n        /* \"#utility.yul\":4684:4686   */\n      0x20\n        /* \"#utility.yul\":4679:4682   */\n      dup3\n        /* \"#utility.yul\":4675:4687   */\n      add\n        /* \"#utility.yul\":4668:4687   */\n      swap1\n      pop\n        /* \"#utility.yul\":4327:4693   */\n      swap2\n      swap1\n      pop\n      jump\t// out\n        /* \"#utility.yul\":4699:5118   */\n    tag_54:\n        /* \"#utility.yul\":4865:4869   */\n      0x00\n        /* \"#utility.yul\":4903:4905   */\n      0x20\n        /* \"#utility.yul\":4892:4901   */\n      dup3\n        /* \"#utility.yul\":4888:4906   */\n      add\n        /* \"#utility.yul\":4880:4906   */\n      swap1\n      pop\n        /* \"#utility.yul\":4952:4961   */\n      dup2\n        /* \"#utility.yul\":4946:4950   */\n      dup2\n        /* \"#utility.yul\":4942:4962   */\n      sub\n        /* \"#utility.yul\":4938:4939   */\n      0x00\n        /* \"#utility.yul\":4927:4936   */\n      dup4\n        /* \"#utility.yul\":4923:4940   */\n      add\n        /* \"#utility.yul\":4916:4963   */\n      mstore\n        /* \"#utility.yul\":4980:5111   */\n      tag_183\n        /* \"#utility.yul\":5106:5110   */\n      dup2\n        /* \"#utility.yul\":4980:5111   */\n      tag_117\n      jump\t// in\n    tag_183:\n        /* \"#utility.yul\":4972:5111   */\n      swap1\n      pop\n        /* \"#utility.yul\":4699:5118   */\n      swap2\n      swap1\n      pop\n      jump\t// out\n        /* \"#utility.yul\":5124:5304   */\n    tag_61:\n        /* \"#utility.yul\":5172:5249   */\n      0x4e487b7100000000000000000000000000000000000000000000000000000000\n        /* \"#utility.yul\":5169:5170   */\n      0x00\n        /* \"#utility.yul\":5162:5250   */\n      mstore\n        /* \"#utility.yul\":5269:5273   */\n      0x32\n        /* \"#utility.yul\":5266:5267   */\n      0x04\n        /* \"#utility.yul\":5259:5274   */\n      mstore\n        /* \"#utility.yul\":5293:5297   */\n      0x24\n        /* \"#utility.yul\":5290:5291   */\n      0x00\n        /* \"#utility.yul\":5283:5298   */\n      revert\n        /* \"#utility.yul\":5310:5490   */\n    tag_65:\n        /* \"#utility.yul\":5358:5435   */\n      0x4e487b7100000000000000000000000000000000000000000000000000000000\n        /* \"#utility.yul\":5355:5356   */\n      0x00\n        /* \"#utility.yul\":5348:5436   */\n      mstore\n        /* \"#utility.yul\":5455:5459   */\n      0x41\n        /* \"#utility.yul\":5452:5453   */\n      0x04\n        /* \"#utility.yul\":5445:5460   */\n      mstore\n        /* \"#utility.yul\":5479:5483   */\n      0x24\n        /* \"#utility.yul\":5476:5477   */\n      0x00\n        /* \"#utility.yul\":5469:5484   */\n      revert\n        /* \"#utility.yul\":5496:5643   */\n    tag_118:\n        /* \"#utility.yul\":5597:5608   */\n      0x00\n        /* \"#utility.yul\":5634:5637   */\n      dup2\n        /* \"#utility.yul\":5619:5637   */\n      swap1\n      pop\n        /* \"#utility.yul\":5496:5643   */\n      swap3\n      swap2\n      pop\n      pop\n      jump\t// out\n        /* \"#utility.yul\":5649:5763   */\n    tag_119:\n      pop\n      jump\t// out\n        /* \"#utility.yul\":5769:6167   */\n    tag_120:\n        /* \"#utility.yul\":5928:5931   */\n      0x00\n        /* \"#utility.yul\":5949:6032   */\n      tag_189\n        /* \"#utility.yul\":6030:6031   */\n      0x00\n        /* \"#utility.yul\":6025:6028   */\n      dup4\n        /* \"#utility.yul\":5949:6032   */\n      tag_118\n      jump\t// in\n    tag_189:\n        /* \"#utility.yul\":5942:6032   */\n      swap2\n      pop\n        /* \"#utility.yul\":6041:6134   */\n      tag_190\n        /* \"#utility.yul\":6130:6133   */\n      dup3\n        /* \"#utility.yul\":6041:6134   */\n      tag_119\n      jump\t// in\n    tag_190:\n        /* \"#utility.yul\":6159:6160   */\n      0x00\n        /* \"#utility.yul\":6154:6157   */\n      dup3\n        /* \"#utility.yul\":6150:6161   */\n      add\n        /* \"#utility.yul\":6143:6161   */\n      swap1\n      pop\n        /* \"#utility.yul\":5769:6167   */\n      swap2\n      swap1\n      pop\n      jump\t// out\n        /* \"#utility.yul\":6173:6552   */\n    tag_70:\n        /* \"#utility.yul\":6357:6360   */\n      0x00\n        /* \"#utility.yul\":6379:6526   */\n      tag_192\n        /* \"#utility.yul\":6522:6525   */\n      dup3\n        /* \"#utility.yul\":6379:6526   */\n      tag_120\n      jump\t// in\n    tag_192:\n        /* \"#utility.yul\":6372:6526   */\n      swap2\n      pop\n        /* \"#utility.yul\":6543:6546   */\n      dup2\n        /* \"#utility.yul\":6536:6546   */\n      swap1\n      pop\n        /* \"#utility.yul\":6173:6552   */\n      swap2\n      swap1\n      pop\n      jump\t// out\n        /* \"#utility.yul\":6558:6714   */\n    tag_121:\n        /* \"#utility.yul\":6698:6706   */\n      0x6661696c65640000000000000000000000000000000000000000000000000000\n        /* \"#utility.yul\":6694:6695   */\n      0x00\n        /* \"#utility.yul\":6686:6692   */\n      dup3\n        /* \"#utility.yul\":6682:6696   */\n      add\n        /* \"#utility.yul\":6675:6707   */\n      mstore\n        /* \"#utility.yul\":6558:6714   */\n      pop\n      jump\t// out\n        /* \"#utility.yul\":6720:7085   */\n    tag_122:\n        /* \"#utility.yul\":6862:6865   */\n      0x00\n        /* \"#utility.yul\":6883:6949   */\n      tag_195\n        /* \"#utility.yul\":6947:6948   */\n      0x06\n        /* \"#utility.yul\":6942:6945   */\n      dup4\n        /* \"#utility.yul\":6883:6949   */\n      tag_112\n      jump\t// in\n    tag_195:\n        /* \"#utility.yul\":6876:6949   */\n      swap2\n      pop\n        /* \"#utility.yul\":6958:7051   */\n      tag_196\n        /* \"#utility.yul\":7047:7050   */\n      dup3\n        /* \"#utility.yul\":6958:7051   */\n      tag_121\n      jump\t// in\n    tag_196:\n        /* \"#utility.yul\":7076:7078   */\n      0x20\n        /* \"#utility.yul\":7071:7074   */\n      dup3\n        /* \"#utility.yul\":7067:7079   */\n      add\n        /* \"#utility.yul\":7060:7079   */\n      swap1\n      pop\n        /* \"#utility.yul\":6720:7085   */\n      swap2\n      swap1\n      pop\n      jump\t// out\n        /* \"#utility.yul\":7091:7510   */\n    tag_76:\n        /* \"#utility.yul\":7257:7261   */\n      0x00\n        /* \"#utility.yul\":7295:7297   */\n      0x20\n        /* \"#utility.yul\":7284:7293   */\n      dup3\n        /* \"#utility.yul\":7280:7298   */\n      add\n        /* \"#utility.yul\":7272:7298   */\n      swap1\n      pop\n        /* \"#utility.yul\":7344:7353   */\n      dup2\n        /* \"#utility.yul\":7338:7342   */\n      dup2\n        /* \"#utility.yul\":7334:7354   */\n      sub\n        /* \"#utility.yul\":7330:7331   */\n      0x00\n        /* \"#utility.yul\":7319:7328   */\n      dup4\n        /* \"#utility.yul\":7315:7332   */\n      add\n        /* \"#utility.yul\":7308:7355   */\n      mstore\n        /* \"#utility.yul\":7372:7503   */\n      tag_198\n        /* \"#utility.yul\":7498:7502   */\n      dup2\n        /* \"#utility.yul\":7372:7503   */\n      tag_122\n      jump\t// in\n    tag_198:\n        /* \"#utility.yul\":7364:7503   */\n      swap1\n      pop\n        /* \"#utility.yul\":7091:7510   */\n      swap2\n      swap1\n      pop\n      jump\t// out\n        /* \"#utility.yul\":7516:7926   */\n    tag_83:\n        /* \"#utility.yul\":7556:7563   */\n      0x00\n        /* \"#utility.yul\":7579:7599   */\n      tag_200\n        /* \"#utility.yul\":7597:7598   */\n      dup3\n        /* \"#utility.yul\":7579:7599   */\n      tag_107\n      jump\t// in\n    tag_200:\n        /* \"#utility.yul\":7574:7599   */\n      swap2\n      pop\n        /* \"#utility.yul\":7613:7633   */\n      tag_201\n        /* \"#utility.yul\":7631:7632   */\n      dup4\n        /* \"#utility.yul\":7613:7633   */\n      tag_107\n      jump\t// in\n    tag_201:\n        /* \"#utility.yul\":7608:7633   */\n      swap3\n      pop\n        /* \"#utility.yul\":7668:7669   */\n      dup3\n        /* \"#utility.yul\":7665:7666   */\n      dup3\n        /* \"#utility.yul\":7661:7670   */\n      mul\n        /* \"#utility.yul\":7690:7720   */\n      tag_202\n        /* \"#utility.yul\":7708:7719   */\n      dup2\n        /* \"#utility.yul\":7690:7720   */\n      tag_107\n      jump\t// in\n    tag_202:\n        /* \"#utility.yul\":7679:7720   */\n      swap2\n      pop\n        /* \"#utility.yul\":7869:7870   */\n      dup3\n        /* \"#utility.yul\":7860:7867   */\n      dup3\n        /* \"#utility.yul\":7856:7871   */\n      div\n        /* \"#utility.yul\":7853:7854   */\n      dup5\n        /* \"#utility.yul\":7850:7872   */\n      eq\n        /* \"#utility.yul\":7830:7831   */\n      dup4\n        /* \"#utility.yul\":7823:7832   */\n      iszero\n        /* \"#utility.yul\":7803:7886   */\n      or\n        /* \"#utility.yul\":7780:7919   */\n      tag_203\n      jumpi\n        /* \"#utility.yul\":7899:7917   */\n      tag_204\n      tag_115\n      jump\t// in\n    tag_204:\n        /* \"#utility.yul\":7780:7919   */\n    tag_203:\n        /* \"#utility.yul\":7564:7926   */\n      pop\n        /* \"#utility.yul\":7516:7926   */\n      swap3\n      swap2\n      pop\n      pop\n      jump\t// out\n        /* \"#utility.yul\":7932:8112   */\n    tag_123:\n        /* \"#utility.yul\":7980:8057   */\n      0x4e487b7100000000000000000000000000000000000000000000000000000000\n        /* \"#utility.yul\":7977:7978   */\n      0x00\n        /* \"#utility.yul\":7970:8058   */\n      mstore\n        /* \"#utility.yul\":8077:8081   */\n      0x12\n        /* \"#utility.yul\":8074:8075   */\n      0x04\n        /* \"#utility.yul\":8067:8082   */\n      mstore\n        /* \"#utility.yul\":8101:8105   */\n      0x24\n        /* \"#utility.yul\":8098:8099   */\n      0x00\n        /* \"#utility.yul\":8091:8106   */\n      revert\n        /* \"#utility.yul\":8118:8303   */\n    tag_85:\n        /* \"#utility.yul\":8158:8159   */\n      0x00\n        /* \"#utility.yul\":8175:8195   */\n      tag_207\n        /* \"#utility.yul\":8193:8194   */\n      dup3\n        /* \"#utility.yul\":8175:8195   */\n      tag_107\n      jump\t// in\n    tag_207:\n        /* \"#utility.yul\":8170:8195   */\n      swap2\n      pop\n        /* \"#utility.yul\":8209:8229   */\n      tag_208\n        /* \"#utility.yul\":8227:8228   */\n      dup4\n        /* \"#utility.yul\":8209:8229   */\n      tag_107\n      jump\t// in\n    tag_208:\n        /* \"#utility.yul\":8204:8229   */\n      swap3\n      pop\n        /* \"#utility.yul\":8248:8249   */\n      dup3\n        /* \"#utility.yul\":8238:8273   */\n      tag_209\n      jumpi\n        /* \"#utility.yul\":8253:8271   */\n      tag_210\n      tag_123\n      jump\t// in\n    tag_210:\n        /* \"#utility.yul\":8238:8273   */\n    tag_209:\n        /* \"#utility.yul\":8295:8296   */\n      dup3\n        /* \"#utility.yul\":8292:8293   */\n      dup3\n        /* \"#utility.yul\":8288:8297   */\n      div\n        /* \"#utility.yul\":8283:8297   */\n      swap1\n      pop\n        /* \"#utility.yul\":8118:8303   */\n      swap3\n      swap2\n      pop\n      pop\n      jump\t// out\n        /* \"#utility.yul\":8309:8414   */\n    tag_124:\n        /* \"#utility.yul\":8345:8352   */\n      0x00\n        /* \"#utility.yul\":8385:8407   */\n      0xffffffffffffffffffff\n        /* \"#utility.yul\":8378:8383   */\n      dup3\n        /* \"#utility.yul\":8374:8408   */\n      and\n        /* \"#utility.yul\":8363:8408   */\n      swap1\n      pop\n        /* \"#utility.yul\":8309:8414   */\n      swap2\n      swap1\n      pop\n      jump\t// out\n        /* \"#utility.yul\":8420:8540   */\n    tag_125:\n        /* \"#utility.yul\":8492:8515   */\n      tag_213\n        /* \"#utility.yul\":8509:8514   */\n      dup2\n        /* \"#utility.yul\":8492:8515   */\n      tag_124\n      jump\t// in\n    tag_213:\n        /* \"#utility.yul\":8485:8490   */\n      dup2\n        /* \"#utility.yul\":8482:8516   */\n      eq\n        /* \"#utility.yul\":8472:8534   */\n      tag_214\n      jumpi\n        /* \"#utility.yul\":8530:8531   */\n      0x00\n        /* \"#utility.yul\":8527:8528   */\n      dup1\n        /* \"#utility.yul\":8520:8532   */\n      revert\n        /* \"#utility.yul\":8472:8534   */\n    tag_214:\n        /* \"#utility.yul\":8420:8540   */\n      pop\n      jump\t// out\n        /* \"#utility.yul\":8546:8687   */\n    tag_126:\n        /* \"#utility.yul\":8602:8607   */\n      0x00\n        /* \"#utility.yul\":8633:8639   */\n      dup2\n        /* \"#utility.yul\":8627:8640   */\n      mload\n        /* \"#utility.yul\":8618:8640   */\n      swap1\n      pop\n        /* \"#utility.yul\":8649:8681   */\n      tag_216\n        /* \"#utility.yul\":8675:8680   */\n      dup2\n        /* \"#utility.yul\":8649:8681   */\n      tag_125\n      jump\t// in\n    tag_216:\n        /* \"#utility.yul\":8546:8687   */\n      swap3\n      swap2\n      pop\n      pop\n      jump\t// out\n        /* \"#utility.yul\":8693:8769   */\n    tag_127:\n        /* \"#utility.yul\":8729:8736   */\n      0x00\n        /* \"#utility.yul\":8758:8763   */\n      dup2\n        /* \"#utility.yul\":8747:8763   */\n      swap1\n      pop\n        /* \"#utility.yul\":8693:8769   */\n      swap2\n      swap1\n      pop\n      jump\t// out\n        /* \"#utility.yul\":8775:8895   */\n    tag_128:\n        /* \"#utility.yul\":8847:8870   */\n      tag_219\n        /* \"#utility.yul\":8864:8869   */\n      dup2\n        /* \"#utility.yul\":8847:8870   */\n      tag_127\n      jump\t// in\n    tag_219:\n        /* \"#utility.yul\":8840:8845   */\n      dup2\n        /* \"#utility.yul\":8837:8871   */\n      eq\n        /* \"#utility.yul\":8827:8889   */\n      tag_220\n      jumpi\n        /* \"#utility.yul\":8885:8886   */\n      0x00\n        /* \"#utility.yul\":8882:8883   */\n      dup1\n        /* \"#utility.yul\":8875:8887   */\n      revert\n        /* \"#utility.yul\":8827:8889   */\n    tag_220:\n        /* \"#utility.yul\":8775:8895   */\n      pop\n      jump\t// out\n        /* \"#utility.yul\":8901:9042   */\n    tag_129:\n        /* \"#utility.yul\":8957:8962   */\n      0x00\n        /* \"#utility.yul\":8988:8994   */\n      dup2\n        /* \"#utility.yul\":8982:8995   */\n      mload\n        /* \"#utility.yul\":8973:8995   */\n      swap1\n      pop\n        /* \"#utility.yul\":9004:9036   */\n      tag_222\n        /* \"#utility.yul\":9030:9035   */\n      dup2\n        /* \"#utility.yul\":9004:9036   */\n      tag_128\n      jump\t// in\n    tag_222:\n        /* \"#utility.yul\":8901:9042   */\n      swap3\n      swap2\n      pop\n      pop\n      jump\t// out\n        /* \"#utility.yul\":9048:9191   */\n    tag_130:\n        /* \"#utility.yul\":9105:9110   */\n      0x00\n        /* \"#utility.yul\":9136:9142   */\n      dup2\n        /* \"#utility.yul\":9130:9143   */\n      mload\n        /* \"#utility.yul\":9121:9143   */\n      swap1\n      pop\n        /* \"#utility.yul\":9152:9185   */\n      tag_224\n        /* \"#utility.yul\":9179:9184   */\n      dup2\n        /* \"#utility.yul\":9152:9185   */\n      tag_110\n      jump\t// in\n    tag_224:\n        /* \"#utility.yul\":9048:9191   */\n      swap3\n      swap2\n      pop\n      pop\n      jump\t// out\n        /* \"#utility.yul\":9197:10168   */\n    tag_90:\n        /* \"#utility.yul\":9300:9306   */\n      0x00\n        /* \"#utility.yul\":9308:9314   */\n      dup1\n        /* \"#utility.yul\":9316:9322   */\n      0x00\n        /* \"#utility.yul\":9324:9330   */\n      dup1\n        /* \"#utility.yul\":9332:9338   */\n      0x00\n        /* \"#utility.yul\":9381:9384   */\n      0xa0\n        /* \"#utility.yul\":9369:9378   */\n      dup7\n        /* \"#utility.yul\":9360:9367   */\n      dup9\n        /* \"#utility.yul\":9356:9379   */\n      sub\n        /* \"#utility.yul\":9352:9385   */\n      slt\n        /* \"#utility.yul\":9349:9469   */\n      iszero\n      tag_226\n      jumpi\n        /* \"#utility.yul\":9388:9467   */\n      tag_227\n      tag_101\n      jump\t// in\n    tag_227:\n        /* \"#utility.yul\":9349:9469   */\n    tag_226:\n        /* \"#utility.yul\":9508:9509   */\n      0x00\n        /* \"#utility.yul\":9533:9596   */\n      tag_228\n        /* \"#utility.yul\":9588:9595   */\n      dup9\n        /* \"#utility.yul\":9579:9585   */\n      dup3\n        /* \"#utility.yul\":9568:9577   */\n      dup10\n        /* \"#utility.yul\":9564:9586   */\n      add\n        /* \"#utility.yul\":9533:9596   */\n      tag_126\n      jump\t// in\n    tag_228:\n        /* \"#utility.yul\":9523:9596   */\n      swap6\n      pop\n        /* \"#utility.yul\":9479:9606   */\n      pop\n        /* \"#utility.yul\":9645:9647   */\n      0x20\n        /* \"#utility.yul\":9671:9734   */\n      tag_229\n        /* \"#utility.yul\":9726:9733   */\n      dup9\n        /* \"#utility.yul\":9717:9723   */\n      dup3\n        /* \"#utility.yul\":9706:9715   */\n      dup10\n        /* \"#utility.yul\":9702:9724   */\n      add\n        /* \"#utility.yul\":9671:9734   */\n      tag_129\n      jump\t// in\n    tag_229:\n        /* \"#utility.yul\":9661:9734   */\n      swap5\n      pop\n        /* \"#utility.yul\":9616:9744   */\n      pop\n        /* \"#utility.yul\":9783:9785   */\n      0x40\n        /* \"#utility.yul\":9809:9873   */\n      tag_230\n        /* \"#utility.yul\":9865:9872   */\n      dup9\n        /* \"#utility.yul\":9856:9862   */\n      dup3\n        /* \"#utility.yul\":9845:9854   */\n      dup10\n        /* \"#utility.yul\":9841:9863   */\n      add\n        /* \"#utility.yul\":9809:9873   */\n      tag_130\n      jump\t// in\n    tag_230:\n        /* \"#utility.yul\":9799:9873   */\n      swap4\n      pop\n        /* \"#utility.yul\":9754:9883   */\n      pop\n        /* \"#utility.yul\":9922:9924   */\n      0x60\n        /* \"#utility.yul\":9948:10012   */\n      tag_231\n        /* \"#utility.yul\":10004:10011   */\n      dup9\n        /* \"#utility.yul\":9995:10001   */\n      dup3\n        /* \"#utility.yul\":9984:9993   */\n      dup10\n        /* \"#utility.yul\":9980:10002   */\n      add\n        /* \"#utility.yul\":9948:10012   */\n      tag_130\n      jump\t// in\n    tag_231:\n        /* \"#utility.yul\":9938:10012   */\n      swap3\n      pop\n        /* \"#utility.yul\":9893:10022   */\n      pop\n        /* \"#utility.yul\":10061:10064   */\n      0x80\n        /* \"#utility.yul\":10088:10151   */\n      tag_232\n        /* \"#utility.yul\":10143:10150   */\n      dup9\n        /* \"#utility.yul\":10134:10140   */\n      dup3\n        /* \"#utility.yul\":10123:10132   */\n      dup10\n        /* \"#utility.yul\":10119:10141   */\n      add\n        /* \"#utility.yul\":10088:10151   */\n      tag_126\n      jump\t// in\n    tag_232:\n        /* \"#utility.yul\":10078:10151   */\n      swap2\n      pop\n        /* \"#utility.yul\":10032:10161   */\n      pop\n        /* \"#utility.yul\":9197:10168   */\n      swap3\n      swap6\n      pop\n      swap3\n      swap6\n      swap1\n      swap4\n      pop\n      jump\t// out\n        /* \"#utility.yul\":10174:10730   */\n    tag_92:\n        /* \"#utility.yul\":10213:10220   */\n      0x00\n        /* \"#utility.yul\":10236:10255   */\n      tag_234\n        /* \"#utility.yul\":10253:10254   */\n      dup3\n        /* \"#utility.yul\":10236:10255   */\n      tag_127\n      jump\t// in\n    tag_234:\n        /* \"#utility.yul\":10231:10255   */\n      swap2\n      pop\n        /* \"#utility.yul\":10269:10288   */\n      tag_235\n        /* \"#utility.yul\":10286:10287   */\n      dup4\n        /* \"#utility.yul\":10269:10288   */\n      tag_127\n      jump\t// in\n    tag_235:\n        /* \"#utility.yul\":10264:10288   */\n      swap3\n      pop\n        /* \"#utility.yul\":10323:10324   */\n      dup3\n        /* \"#utility.yul\":10320:10321   */\n      dup3\n        /* \"#utility.yul\":10316:10325   */\n      mul\n        /* \"#utility.yul\":10345:10374   */\n      tag_236\n        /* \"#utility.yul\":10362:10373   */\n      dup2\n        /* \"#utility.yul\":10345:10374   */\n      tag_127\n      jump\t// in\n    tag_236:\n        /* \"#utility.yul\":10334:10374   */\n      swap2\n      pop\n        /* \"#utility.yul\":10432:10498   */\n      0x8000000000000000000000000000000000000000000000000000000000000000\n        /* \"#utility.yul\":10429:10430   */\n      dup5\n        /* \"#utility.yul\":10426:10499   */\n      eq\n        /* \"#utility.yul\":10422:10423   */\n      0x00\n        /* \"#utility.yul\":10419:10420   */\n      dup5\n        /* \"#utility.yul\":10415:10424   */\n      slt\n        /* \"#utility.yul\":10411:10500   */\n      and\n        /* \"#utility.yul\":10408:10523   */\n      iszero\n      tag_237\n      jumpi\n        /* \"#utility.yul\":10503:10521   */\n      tag_238\n      tag_115\n      jump\t// in\n    tag_238:\n        /* \"#utility.yul\":10408:10523   */\n    tag_237:\n        /* \"#utility.yul\":10673:10674   */\n      dup3\n        /* \"#utility.yul\":10664:10671   */\n      dup3\n        /* \"#utility.yul\":10659:10675   */\n      sdiv\n        /* \"#utility.yul\":10656:10657   */\n      dup5\n        /* \"#utility.yul\":10653:10676   */\n      eq\n        /* \"#utility.yul\":10633:10634   */\n      dup4\n        /* \"#utility.yul\":10626:10635   */\n      iszero\n        /* \"#utility.yul\":10606:10690   */\n      or\n        /* \"#utility.yul\":10583:10723   */\n      tag_239\n      jumpi\n        /* \"#utility.yul\":10703:10721   */\n      tag_240\n      tag_115\n      jump\t// in\n    tag_240:\n        /* \"#utility.yul\":10583:10723   */\n    tag_239:\n        /* \"#utility.yul\":10221:10730   */\n      pop\n        /* \"#utility.yul\":10174:10730   */\n      swap3\n      swap2\n      pop\n      pop\n      jump\t// out\n\n    auxdata: 0xa2646970667358221220149bbb4d38111987a9fc56187e9c9ed04dde9d9cde991db16429142a94c74b9b64736f6c634300081a0033\n}\n",
				"bytecode": {
					"linkReferences": {},
					"object": "60a0604052348015600e575f80fd5b503373ffffffffffffffffffffffffffffffffffffffff1660808173ffffffffffffffffffffffffffffffffffffffff1681525050608051610c7d6100625f395f818161026601526104af0152610c7d5ff3fe608060405260043610610058575f3560e01c80633ccfd60b1461007157806371518544146100875780638da5cb5b146100c3578063b60d4288146100ed578063dc0d3dff146100f7578063dc992aa01461013357610067565b366100675761006561015d565b005b61006f61015d565b005b34801561007c575f80fd5b50610085610264565b005b348015610092575f80fd5b506100ad60048036038101906100a891906106f4565b610498565b6040516100ba9190610737565b60405180910390f35b3480156100ce575f80fd5b506100d76104ad565b6040516100e4919061075f565b60405180910390f35b6100f561015d565b005b348015610102575f80fd5b5061011d600480360381019061011891906107a2565b6104d1565b60405161012a919061075f565b60405180910390f35b34801561013e575f80fd5b5061014761050b565b6040516101549190610737565b60405180910390f35b674563918244f4000061016f34610517565b10156101b0576040517f08c379a00000000000000000000000000000000000000000000000000000000081526004016101a79061084d565b60405180910390fd5b5f33908060018154018082558091505060019003905f5260205f20015f9091909190916101000a81548173ffffffffffffffffffffffffffffffffffffffff021916908373ffffffffffffffffffffffffffffffffffffffff1602179055503460015f3373ffffffffffffffffffffffffffffffffffffffff1673ffffffffffffffffffffffffffffffffffffffff1681526020019081526020015f205f82825461025b9190610898565b92505081905550565b7f000000000000000000000000000000000000000000000000000000000000000073ffffffffffffffffffffffffffffffffffffffff163373ffffffffffffffffffffffffffffffffffffffff16146102f2576040517f08c379a00000000000000000000000000000000000000000000000000000000081526004016102e990610915565b60405180910390fd5b5f5b5f8054905081101561038e575f80828154811061031457610313610933565b5b905f5260205f20015f9054906101000a900473ffffffffffffffffffffffffffffffffffffffff1690505f60015f8373ffffffffffffffffffffffffffffffffffffffff1673ffffffffffffffffffffffffffffffffffffffff1681526020019081526020015f20819055505080806001019150506102f4565b505f67ffffffffffffffff8111156103a9576103a8610960565b5b6040519080825280602002602001820160405280156103d75781602001602082028036833780820191505090505b505f90805190602001906103ec9291906105f4565b505f3373ffffffffffffffffffffffffffffffffffffffff1647604051610412906109ba565b5f6040518083038185875af1925050503d805f811461044c576040519150601f19603f3d011682016040523d82523d5f602084013e610451565b606091505b5050905080610495576040517f08c379a000000000000000000000000000000000000000000000000000000000815260040161048c90610a18565b60405180910390fd5b50565b6001602052805f5260405f205f915090505481565b7f000000000000000000000000000000000000000000000000000000000000000081565b5f81815481106104df575f80fd5b905f5260205f20015f915054906101000a900473ffffffffffffffffffffffffffffffffffffffff1681565b674563918244f4000081565b5f8061052161054f565b90505f670de0b6b3a764000084836105399190610a36565b6105439190610aa4565b90508092505050919050565b5f8073694aa1769357215de4fac081bf1f309adc32530690505f8173ffffffffffffffffffffffffffffffffffffffff1663feaf968c6040518163ffffffff1660e01b815260040160a060405180830381865afa1580156105b2573d5f803e3d5ffd5b505050506040513d601f19601f820116820180604052508101906105d69190610b5a565b5050509150506402540be400816105ed9190610bd1565b9250505090565b828054828255905f5260205f2090810192821561066a579160200282015b82811115610669578251825f6101000a81548173ffffffffffffffffffffffffffffffffffffffff021916908373ffffffffffffffffffffffffffffffffffffffff16021790555091602001919060010190610612565b5b509050610677919061067b565b5090565b5b80821115610692575f815f90555060010161067c565b5090565b5f80fd5b5f73ffffffffffffffffffffffffffffffffffffffff82169050919050565b5f6106c38261069a565b9050919050565b6106d3816106b9565b81146106dd575f80fd5b50565b5f813590506106ee816106ca565b92915050565b5f6020828403121561070957610708610696565b5b5f610716848285016106e0565b91505092915050565b5f819050919050565b6107318161071f565b82525050565b5f60208201905061074a5f830184610728565b92915050565b610759816106b9565b82525050565b5f6020820190506107725f830184610750565b92915050565b6107818161071f565b811461078b575f80fd5b50565b5f8135905061079c81610778565b92915050565b5f602082840312156107b7576107b6610696565b5b5f6107c48482850161078e565b91505092915050565b5f82825260208201905092915050565b7f506c656173652073656e642061746c65617374206d696e696d756d2076616c755f8201527f6500000000000000000000000000000000000000000000000000000000000000602082015250565b5f6108376021836107cd565b9150610842826107dd565b604082019050919050565b5f6020820190508181035f8301526108648161082b565b9050919050565b7f4e487b71000000000000000000000000000000000000000000000000000000005f52601160045260245ffd5b5f6108a28261071f565b91506108ad8361071f565b92508282019050808211156108c5576108c461086b565b5b92915050565b7f53656e646572206973206e6f74206f776e6572000000000000000000000000005f82015250565b5f6108ff6013836107cd565b915061090a826108cb565b602082019050919050565b5f6020820190508181035f83015261092c816108f3565b9050919050565b7f4e487b71000000000000000000000000000000000000000000000000000000005f52603260045260245ffd5b7f4e487b71000000000000000000000000000000000000000000000000000000005f52604160045260245ffd5b5f81905092915050565b50565b5f6109a55f8361098d565b91506109b082610997565b5f82019050919050565b5f6109c48261099a565b9150819050919050565b7f6661696c656400000000000000000000000000000000000000000000000000005f82015250565b5f610a026006836107cd565b9150610a0d826109ce565b602082019050919050565b5f6020820190508181035f830152610a2f816109f6565b9050919050565b5f610a408261071f565b9150610a4b8361071f565b9250828202610a598161071f565b91508282048414831517610a7057610a6f61086b565b5b5092915050565b7f4e487b71000000000000000000000000000000000000000000000000000000005f52601260045260245ffd5b5f610aae8261071f565b9150610ab98361071f565b925082610ac957610ac8610a77565b5b828204905092915050565b5f69ffffffffffffffffffff82169050919050565b610af281610ad4565b8114610afc575f80fd5b50565b5f81519050610b0d81610ae9565b92915050565b5f819050919050565b610b2581610b13565b8114610b2f575f80fd5b50565b5f81519050610b4081610b1c565b92915050565b5f81519050610b5481610778565b92915050565b5f805f805f60a08688031215610b7357610b72610696565b5b5f610b8088828901610aff565b9550506020610b9188828901610b32565b9450506040610ba288828901610b46565b9350506060610bb388828901610b46565b9250506080610bc488828901610aff565b9150509295509295909350565b5f610bdb82610b13565b9150610be683610b13565b9250828202610bf481610b13565b91507f800000000000000000000000000000000000000000000000000000000000000084145f84121615610c2b57610c2a61086b565b5b8282058414831517610c4057610c3f61086b565b5b509291505056fea2646970667358221220149bbb4d38111987a9fc56187e9c9ed04dde9d9cde991db16429142a94c74b9b64736f6c634300081a0033",
					"opcodes": "PUSH1 0xA0 PUSH1 0x40 MSTORE CALLVALUE DUP1 ISZERO PUSH1 0xE JUMPI PUSH0 DUP1 REVERT JUMPDEST POP CALLER PUSH20 0xFFFFFFFFFFFFFFFFFFFFFFFFFFFFFFFFFFFFFFFF AND PUSH1 0x80 DUP2 PUSH20 0xFFFFFFFFFFFFFFFFFFFFFFFFFFFFFFFFFFFFFFFF AND DUP2 MSTORE POP POP PUSH1 0x80 MLOAD PUSH2 0xC7D PUSH2 0x62 PUSH0 CODECOPY PUSH0 DUP2 DUP2 PUSH2 0x266 ADD MSTORE PUSH2 0x4AF ADD MSTORE PUSH2 0xC7D PUSH0 RETURN INVALID PUSH1 0x80 PUSH1 0x40 MSTORE PUSH1 0x4 CALLDATASIZE LT PUSH2 0x58 JUMPI PUSH0 CALLDATALOAD PUSH1 0xE0 SHR DUP1 PUSH4 0x3CCFD60B EQ PUSH2 0x71 JUMPI DUP1 PUSH4 0x71518544 EQ PUSH2 0x87 JUMPI DUP1 PUSH4 0x8DA5CB5B EQ PUSH2 0xC3 JUMPI DUP1 PUSH4 0xB60D4288 EQ PUSH2 0xED JUMPI DUP1 PUSH4 0xDC0D3DFF EQ PUSH2 0xF7 JUMPI DUP1 PUSH4 0xDC992AA0 EQ PUSH2 0x133 JUMPI PUSH2 0x67 JUMP JUMPDEST CALLDATASIZE PUSH2 0x67 JUMPI PUSH2 0x65 PUSH2 0x15D JUMP JUMPDEST STOP JUMPDEST PUSH2 0x6F PUSH2 0x15D JUMP JUMPDEST STOP JUMPDEST CALLVALUE DUP1 ISZERO PUSH2 0x7C JUMPI PUSH0 DUP1 REVERT JUMPDEST POP PUSH2 0x85 PUSH2 0x264 JUMP JUMPDEST STOP JUMPDEST CALLVALUE DUP1 ISZERO PUSH2 0x92 JUMPI PUSH0 DUP1 REVERT JUMPDEST POP PUSH2 0xAD PUSH1 0x4 DUP1 CALLDATASIZE SUB DUP2 ADD SWAP1 PUSH2 0xA8 SWAP2 SWAP1 PUSH2 0x6F4 JUMP JUMPDEST PUSH2 0x498 JUMP JUMPDEST PUSH1 0x40 MLOAD PUSH2 0xBA SWAP2 SWAP1 PUSH2 0x737 JUMP JUMPDEST PUSH1 0x40 MLOAD DUP1 SWAP2 SUB SWAP1 RETURN JUMPDEST CALLVALUE DUP1 ISZERO PUSH2 0xCE JUMPI PUSH0 DUP1 REVERT JUMPDEST POP PUSH2 0xD7 PUSH2 0x4AD JUMP JUMPDEST PUSH1 0x40 MLOAD PUSH2 0xE4 SWAP2 SWAP1 PUSH2 0x75F JUMP JUMPDEST PUSH1 0x40 MLOAD DUP1 SWAP2 SUB SWAP1 RETURN JUMPDEST PUSH2 0xF5 PUSH2 0x15D JUMP JUMPDEST STOP JUMPDEST CALLVALUE DUP1 ISZERO PUSH2 0x102 JUMPI PUSH0 DUP1 REVERT JUMPDEST POP PUSH2 0x11D PUSH1 0x4 DUP1 CALLDATASIZE SUB DUP2 ADD SWAP1 PUSH2 0x118 SWAP2 SWAP1 PUSH2 0x7A2 JUMP JUMPDEST PUSH2 0x4D1 JUMP JUMPDEST PUSH1 0x40 MLOAD PUSH2 0x12A SWAP2 SWAP1 PUSH2 0x75F JUMP JUMPDEST PUSH1 0x40 MLOAD DUP1 SWAP2 SUB SWAP1 RETURN JUMPDEST CALLVALUE DUP1 ISZERO PUSH2 0x13E JUMPI PUSH0 DUP1 REVERT JUMPDEST POP PUSH2 0x147 PUSH2 0x50B JUMP JUMPDEST PUSH1 0x40 MLOAD PUSH2 0x154 SWAP2 SWAP1 PUSH2 0x737 JUMP JUMPDEST PUSH1 0x40 MLOAD DUP1 SWAP2 SUB SWAP1 RETURN JUMPDEST PUSH8 0x4563918244F40000 PUSH2 0x16F CALLVALUE PUSH2 0x517 JUMP JUMPDEST LT ISZERO PUSH2 0x1B0 JUMPI PUSH1 0x40 MLOAD PUSH32 0x8C379A000000000000000000000000000000000000000000000000000000000 DUP2 MSTORE PUSH1 0x4 ADD PUSH2 0x1A7 SWAP1 PUSH2 0x84D JUMP JUMPDEST PUSH1 0x40 MLOAD DUP1 SWAP2 SUB SWAP1 REVERT JUMPDEST PUSH0 CALLER SWAP1 DUP1 PUSH1 0x1 DUP2 SLOAD ADD DUP1 DUP3 SSTORE DUP1 SWAP2 POP POP PUSH1 0x1 SWAP1 SUB SWAP1 PUSH0 MSTORE PUSH1 0x20 PUSH0 KECCAK256 ADD PUSH0 SWAP1 SWAP2 SWAP1 SWAP2 SWAP1 SWAP2 PUSH2 0x100 EXP DUP2 SLOAD DUP2 PUSH20 0xFFFFFFFFFFFFFFFFFFFFFFFFFFFFFFFFFFFFFFFF MUL NOT AND SWAP1 DUP4 PUSH20 0xFFFFFFFFFFFFFFFFFFFFFFFFFFFFFFFFFFFFFFFF AND MUL OR SWAP1 SSTORE POP CALLVALUE PUSH1 0x1 PUSH0 CALLER PUSH20 0xFFFFFFFFFFFFFFFFFFFFFFFFFFFFFFFFFFFFFFFF AND PUSH20 0xFFFFFFFFFFFFFFFFFFFFFFFFFFFFFFFFFFFFFFFF AND DUP2 MSTORE PUSH1 0x20 ADD SWAP1 DUP2 MSTORE PUSH1 0x20 ADD PUSH0 KECCAK256 PUSH0 DUP3 DUP3 SLOAD PUSH2 0x25B SWAP2 SWAP1 PUSH2 0x898 JUMP JUMPDEST SWAP3 POP POP DUP2 SWAP1 SSTORE POP JUMP JUMPDEST PUSH32 0x0 PUSH20 0xFFFFFFFFFFFFFFFFFFFFFFFFFFFFFFFFFFFFFFFF AND CALLER PUSH20 0xFFFFFFFFFFFFFFFFFFFFFFFFFFFFFFFFFFFFFFFF AND EQ PUSH2 0x2F2 JUMPI PUSH1 0x40 MLOAD PUSH32 0x8C379A000000000000000000000000000000000000000000000000000000000 DUP2 MSTORE PUSH1 0x4 ADD PUSH2 0x2E9 SWAP1 PUSH2 0x915 JUMP JUMPDEST PUSH1 0x40 MLOAD DUP1 SWAP2 SUB SWAP1 REVERT JUMPDEST PUSH0 JUMPDEST PUSH0 DUP1 SLOAD SWAP1 POP DUP2 LT ISZERO PUSH2 0x38E JUMPI PUSH0 DUP1 DUP3 DUP2 SLOAD DUP2 LT PUSH2 0x314 JUMPI PUSH2 0x313 PUSH2 0x933 JUMP JUMPDEST JUMPDEST SWAP1 PUSH0 MSTORE PUSH1 0x20 PUSH0 KECCAK256 ADD PUSH0 SWAP1 SLOAD SWAP1 PUSH2 0x100 EXP SWAP1 DIV PUSH20 0xFFFFFFFFFFFFFFFFFFFFFFFFFFFFFFFFFFFFFFFF AND SWAP1 POP PUSH0 PUSH1 0x1 PUSH0 DUP4 PUSH20 0xFFFFFFFFFFFFFFFFFFFFFFFFFFFFFFFFFFFFFFFF AND PUSH20 0xFFFFFFFFFFFFFFFFFFFFFFFFFFFFFFFFFFFFFFFF AND DUP2 MSTORE PUSH1 0x20 ADD SWAP1 DUP2 MSTORE PUSH1 0x20 ADD PUSH0 KECCAK256 DUP2 SWAP1 SSTORE POP POP DUP1 DUP1 PUSH1 0x1 ADD SWAP2 POP POP PUSH2 0x2F4 JUMP JUMPDEST POP PUSH0 PUSH8 0xFFFFFFFFFFFFFFFF DUP2 GT ISZERO PUSH2 0x3A9 JUMPI PUSH2 0x3A8 PUSH2 0x960 JUMP JUMPDEST JUMPDEST PUSH1 0x40 MLOAD SWAP1 DUP1 DUP3 MSTORE DUP1 PUSH1 0x20 MUL PUSH1 0x20 ADD DUP3 ADD PUSH1 0x40 MSTORE DUP1 ISZERO PUSH2 0x3D7 JUMPI DUP2 PUSH1 0x20 ADD PUSH1 0x20 DUP3 MUL DUP1 CALLDATASIZE DUP4 CALLDATACOPY DUP1 DUP3 ADD SWAP2 POP POP SWAP1 POP JUMPDEST POP PUSH0 SWAP1 DUP1 MLOAD SWAP1 PUSH1 0x20 ADD SWAP1 PUSH2 0x3EC SWAP3 SWAP2 SWAP1 PUSH2 0x5F4 JUMP JUMPDEST POP PUSH0 CALLER PUSH20 0xFFFFFFFFFFFFFFFFFFFFFFFFFFFFFFFFFFFFFFFF AND SELFBALANCE PUSH1 0x40 MLOAD PUSH2 0x412 SWAP1 PUSH2 0x9BA JUMP JUMPDEST PUSH0 PUSH1 0x40 MLOAD DUP1 DUP4 SUB DUP2 DUP6 DUP8 GAS CALL SWAP3 POP POP POP RETURNDATASIZE DUP1 PUSH0 DUP2 EQ PUSH2 0x44C JUMPI PUSH1 0x40 MLOAD SWAP2 POP PUSH1 0x1F NOT PUSH1 0x3F RETURNDATASIZE ADD AND DUP3 ADD PUSH1 0x40 MSTORE RETURNDATASIZE DUP3 MSTORE RETURNDATASIZE PUSH0 PUSH1 0x20 DUP5 ADD RETURNDATACOPY PUSH2 0x451 JUMP JUMPDEST PUSH1 0x60 SWAP2 POP JUMPDEST POP POP SWAP1 POP DUP1 PUSH2 0x495 JUMPI PUSH1 0x40 MLOAD PUSH32 0x8C379A000000000000000000000000000000000000000000000000000000000 DUP2 MSTORE PUSH1 0x4 ADD PUSH2 0x48C SWAP1 PUSH2 0xA18 JUMP JUMPDEST PUSH1 0x40 MLOAD DUP1 SWAP2 SUB SWAP1 REVERT JUMPDEST POP JUMP JUMPDEST PUSH1 0x1 PUSH1 0x20 MSTORE DUP1 PUSH0 MSTORE PUSH1 0x40 PUSH0 KECCAK256 PUSH0 SWAP2 POP SWAP1 POP SLOAD DUP2 JUMP JUMPDEST PUSH32 0x0 DUP2 JUMP JUMPDEST PUSH0 DUP2 DUP2 SLOAD DUP2 LT PUSH2 0x4DF JUMPI PUSH0 DUP1 REVERT JUMPDEST SWAP1 PUSH0 MSTORE PUSH1 0x20 PUSH0 KECCAK256 ADD PUSH0 SWAP2 POP SLOAD SWAP1 PUSH2 0x100 EXP SWAP1 DIV PUSH20 0xFFFFFFFFFFFFFFFFFFFFFFFFFFFFFFFFFFFFFFFF AND DUP2 JUMP JUMPDEST PUSH8 0x4563918244F40000 DUP2 JUMP JUMPDEST PUSH0 DUP1 PUSH2 0x521 PUSH2 0x54F JUMP JUMPDEST SWAP1 POP PUSH0 PUSH8 0xDE0B6B3A7640000 DUP5 DUP4 PUSH2 0x539 SWAP2 SWAP1 PUSH2 0xA36 JUMP JUMPDEST PUSH2 0x543 SWAP2 SWAP1 PUSH2 0xAA4 JUMP JUMPDEST SWAP1 POP DUP1 SWAP3 POP POP POP SWAP2 SWAP1 POP JUMP JUMPDEST PUSH0 DUP1 PUSH20 0x694AA1769357215DE4FAC081BF1F309ADC325306 SWAP1 POP PUSH0 DUP2 PUSH20 0xFFFFFFFFFFFFFFFFFFFFFFFFFFFFFFFFFFFFFFFF AND PUSH4 0xFEAF968C PUSH1 0x40 MLOAD DUP2 PUSH4 0xFFFFFFFF AND PUSH1 0xE0 SHL DUP2 MSTORE PUSH1 0x4 ADD PUSH1 0xA0 PUSH1 0x40 MLOAD DUP1 DUP4 SUB DUP2 DUP7 GAS STATICCALL ISZERO DUP1 ISZERO PUSH2 0x5B2 JUMPI RETURNDATASIZE PUSH0 DUP1 RETURNDATACOPY RETURNDATASIZE PUSH0 REVERT JUMPDEST POP POP POP POP PUSH1 0x40 MLOAD RETURNDATASIZE PUSH1 0x1F NOT PUSH1 0x1F DUP3 ADD AND DUP3 ADD DUP1 PUSH1 0x40 MSTORE POP DUP2 ADD SWAP1 PUSH2 0x5D6 SWAP2 SWAP1 PUSH2 0xB5A JUMP JUMPDEST POP POP POP SWAP2 POP POP PUSH5 0x2540BE400 DUP2 PUSH2 0x5ED SWAP2 SWAP1 PUSH2 0xBD1 JUMP JUMPDEST SWAP3 POP POP POP SWAP1 JUMP JUMPDEST DUP3 DUP1 SLOAD DUP3 DUP3 SSTORE SWAP1 PUSH0 MSTORE PUSH1 0x20 PUSH0 KECCAK256 SWAP1 DUP2 ADD SWAP3 DUP3 ISZERO PUSH2 0x66A JUMPI SWAP2 PUSH1 0x20 MUL DUP3 ADD JUMPDEST DUP3 DUP2 GT ISZERO PUSH2 0x669 JUMPI DUP3 MLOAD DUP3 PUSH0 PUSH2 0x100 EXP DUP2 SLOAD DUP2 PUSH20 0xFFFFFFFFFFFFFFFFFFFFFFFFFFFFFFFFFFFFFFFF MUL NOT AND SWAP1 DUP4 PUSH20 0xFFFFFFFFFFFFFFFFFFFFFFFFFFFFFFFFFFFFFFFF AND MUL OR SWAP1 SSTORE POP SWAP2 PUSH1 0x20 ADD SWAP2 SWAP1 PUSH1 0x1 ADD SWAP1 PUSH2 0x612 JUMP JUMPDEST JUMPDEST POP SWAP1 POP PUSH2 0x677 SWAP2 SWAP1 PUSH2 0x67B JUMP JUMPDEST POP SWAP1 JUMP JUMPDEST JUMPDEST DUP1 DUP3 GT ISZERO PUSH2 0x692 JUMPI PUSH0 DUP2 PUSH0 SWAP1 SSTORE POP PUSH1 0x1 ADD PUSH2 0x67C JUMP JUMPDEST POP SWAP1 JUMP JUMPDEST PUSH0 DUP1 REVERT JUMPDEST PUSH0 PUSH20 0xFFFFFFFFFFFFFFFFFFFFFFFFFFFFFFFFFFFFFFFF DUP3 AND SWAP1 POP SWAP2 SWAP1 POP JUMP JUMPDEST PUSH0 PUSH2 0x6C3 DUP3 PUSH2 0x69A JUMP JUMPDEST SWAP1 POP SWAP2 SWAP1 POP JUMP JUMPDEST PUSH2 0x6D3 DUP2 PUSH2 0x6B9 JUMP JUMPDEST DUP2 EQ PUSH2 0x6DD JUMPI PUSH0 DUP1 REVERT JUMPDEST POP JUMP JUMPDEST PUSH0 DUP2 CALLDATALOAD SWAP1 POP PUSH2 0x6EE DUP2 PUSH2 0x6CA JUMP JUMPDEST SWAP3 SWAP2 POP POP JUMP JUMPDEST PUSH0 PUSH1 0x20 DUP3 DUP5 SUB SLT ISZERO PUSH2 0x709 JUMPI PUSH2 0x708 PUSH2 0x696 JUMP JUMPDEST JUMPDEST PUSH0 PUSH2 0x716 DUP5 DUP3 DUP6 ADD PUSH2 0x6E0 JUMP JUMPDEST SWAP2 POP POP SWAP3 SWAP2 POP POP JUMP JUMPDEST PUSH0 DUP2 SWAP1 POP SWAP2 SWAP1 POP JUMP JUMPDEST PUSH2 0x731 DUP2 PUSH2 0x71F JUMP JUMPDEST DUP3 MSTORE POP POP JUMP JUMPDEST PUSH0 PUSH1 0x20 DUP3 ADD SWAP1 POP PUSH2 0x74A PUSH0 DUP4 ADD DUP5 PUSH2 0x728 JUMP JUMPDEST SWAP3 SWAP2 POP POP JUMP JUMPDEST PUSH2 0x759 DUP2 PUSH2 0x6B9 JUMP JUMPDEST DUP3 MSTORE POP POP JUMP JUMPDEST PUSH0 PUSH1 0x20 DUP3 ADD SWAP1 POP PUSH2 0x772 PUSH0 DUP4 ADD DUP5 PUSH2 0x750 JUMP JUMPDEST SWAP3 SWAP2 POP POP JUMP JUMPDEST PUSH2 0x781 DUP2 PUSH2 0x71F JUMP JUMPDEST DUP2 EQ PUSH2 0x78B JUMPI PUSH0 DUP1 REVERT JUMPDEST POP JUMP JUMPDEST PUSH0 DUP2 CALLDATALOAD SWAP1 POP PUSH2 0x79C DUP2 PUSH2 0x778 JUMP JUMPDEST SWAP3 SWAP2 POP POP JUMP JUMPDEST PUSH0 PUSH1 0x20 DUP3 DUP5 SUB SLT ISZERO PUSH2 0x7B7 JUMPI PUSH2 0x7B6 PUSH2 0x696 JUMP JUMPDEST JUMPDEST PUSH0 PUSH2 0x7C4 DUP5 DUP3 DUP6 ADD PUSH2 0x78E JUMP JUMPDEST SWAP2 POP POP SWAP3 SWAP2 POP POP JUMP JUMPDEST PUSH0 DUP3 DUP3 MSTORE PUSH1 0x20 DUP3 ADD SWAP1 POP SWAP3 SWAP2 POP POP JUMP JUMPDEST PUSH32 0x506C656173652073656E642061746C65617374206D696E696D756D2076616C75 PUSH0 DUP3 ADD MSTORE PUSH32 0x6500000000000000000000000000000000000000000000000000000000000000 PUSH1 0x20 DUP3 ADD MSTORE POP JUMP JUMPDEST PUSH0 PUSH2 0x837 PUSH1 0x21 DUP4 PUSH2 0x7CD JUMP JUMPDEST SWAP2 POP PUSH2 0x842 DUP3 PUSH2 0x7DD JUMP JUMPDEST PUSH1 0x40 DUP3 ADD SWAP1 POP SWAP2 SWAP1 POP JUMP JUMPDEST PUSH0 PUSH1 0x20 DUP3 ADD SWAP1 POP DUP2 DUP2 SUB PUSH0 DUP4 ADD MSTORE PUSH2 0x864 DUP2 PUSH2 0x82B JUMP JUMPDEST SWAP1 POP SWAP2 SWAP1 POP JUMP JUMPDEST PUSH32 0x4E487B7100000000000000000000000000000000000000000000000000000000 PUSH0 MSTORE PUSH1 0x11 PUSH1 0x4 MSTORE PUSH1 0x24 PUSH0 REVERT JUMPDEST PUSH0 PUSH2 0x8A2 DUP3 PUSH2 0x71F JUMP JUMPDEST SWAP2 POP PUSH2 0x8AD DUP4 PUSH2 0x71F JUMP JUMPDEST SWAP3 POP DUP3 DUP3 ADD SWAP1 POP DUP1 DUP3 GT ISZERO PUSH2 0x8C5 JUMPI PUSH2 0x8C4 PUSH2 0x86B JUMP JUMPDEST JUMPDEST SWAP3 SWAP2 POP POP JUMP JUMPDEST PUSH32 0x53656E646572206973206E6F74206F776E657200000000000000000000000000 PUSH0 DUP3 ADD MSTORE POP JUMP JUMPDEST PUSH0 PUSH2 0x8FF PUSH1 0x13 DUP4 PUSH2 0x7CD JUMP JUMPDEST SWAP2 POP PUSH2 0x90A DUP3 PUSH2 0x8CB JUMP JUMPDEST PUSH1 0x20 DUP3 ADD SWAP1 POP SWAP2 SWAP1 POP JUMP JUMPDEST PUSH0 PUSH1 0x20 DUP3 ADD SWAP1 POP DUP2 DUP2 SUB PUSH0 DUP4 ADD MSTORE PUSH2 0x92C DUP2 PUSH2 0x8F3 JUMP JUMPDEST SWAP1 POP SWAP2 SWAP1 POP JUMP JUMPDEST PUSH32 0x4E487B7100000000000000000000000000000000000000000000000000000000 PUSH0 MSTORE PUSH1 0x32 PUSH1 0x4 MSTORE PUSH1 0x24 PUSH0 REVERT JUMPDEST PUSH32 0x4E487B7100000000000000000000000000000000000000000000000000000000 PUSH0 MSTORE PUSH1 0x41 PUSH1 0x4 MSTORE PUSH1 0x24 PUSH0 REVERT JUMPDEST PUSH0 DUP2 SWAP1 POP SWAP3 SWAP2 POP POP JUMP JUMPDEST POP JUMP JUMPDEST PUSH0 PUSH2 0x9A5 PUSH0 DUP4 PUSH2 0x98D JUMP JUMPDEST SWAP2 POP PUSH2 0x9B0 DUP3 PUSH2 0x997 JUMP JUMPDEST PUSH0 DUP3 ADD SWAP1 POP SWAP2 SWAP1 POP JUMP JUMPDEST PUSH0 PUSH2 0x9C4 DUP3 PUSH2 0x99A JUMP JUMPDEST SWAP2 POP DUP2 SWAP1 POP SWAP2 SWAP1 POP JUMP JUMPDEST PUSH32 0x6661696C65640000000000000000000000000000000000000000000000000000 PUSH0 DUP3 ADD MSTORE POP JUMP JUMPDEST PUSH0 PUSH2 0xA02 PUSH1 0x6 DUP4 PUSH2 0x7CD JUMP JUMPDEST SWAP2 POP PUSH2 0xA0D DUP3 PUSH2 0x9CE JUMP JUMPDEST PUSH1 0x20 DUP3 ADD SWAP1 POP SWAP2 SWAP1 POP JUMP JUMPDEST PUSH0 PUSH1 0x20 DUP3 ADD SWAP1 POP DUP2 DUP2 SUB PUSH0 DUP4 ADD MSTORE PUSH2 0xA2F DUP2 PUSH2 0x9F6 JUMP JUMPDEST SWAP1 POP SWAP2 SWAP1 POP JUMP JUMPDEST PUSH0 PUSH2 0xA40 DUP3 PUSH2 0x71F JUMP JUMPDEST SWAP2 POP PUSH2 0xA4B DUP4 PUSH2 0x71F JUMP JUMPDEST SWAP3 POP DUP3 DUP3 MUL PUSH2 0xA59 DUP2 PUSH2 0x71F JUMP JUMPDEST SWAP2 POP DUP3 DUP3 DIV DUP5 EQ DUP4 ISZERO OR PUSH2 0xA70 JUMPI PUSH2 0xA6F PUSH2 0x86B JUMP JUMPDEST JUMPDEST POP SWAP3 SWAP2 POP POP JUMP JUMPDEST PUSH32 0x4E487B7100000000000000000000000000000000000000000000000000000000 PUSH0 MSTORE PUSH1 0x12 PUSH1 0x4 MSTORE PUSH1 0x24 PUSH0 REVERT JUMPDEST PUSH0 PUSH2 0xAAE DUP3 PUSH2 0x71F JUMP JUMPDEST SWAP2 POP PUSH2 0xAB9 DUP4 PUSH2 0x71F JUMP JUMPDEST SWAP3 POP DUP3 PUSH2 0xAC9 JUMPI PUSH2 0xAC8 PUSH2 0xA77 JUMP JUMPDEST JUMPDEST DUP3 DUP3 DIV SWAP1 POP SWAP3 SWAP2 POP POP JUMP JUMPDEST PUSH0 PUSH10 0xFFFFFFFFFFFFFFFFFFFF DUP3 AND SWAP1 POP SWAP2 SWAP1 POP JUMP JUMPDEST PUSH2 0xAF2 DUP2 PUSH2 0xAD4 JUMP JUMPDEST DUP2 EQ PUSH2 0xAFC JUMPI PUSH0 DUP1 REVERT JUMPDEST POP JUMP JUMPDEST PUSH0 DUP2 MLOAD SWAP1 POP PUSH2 0xB0D DUP2 PUSH2 0xAE9 JUMP JUMPDEST SWAP3 SWAP2 POP POP JUMP JUMPDEST PUSH0 DUP2 SWAP1 POP SWAP2 SWAP1 POP JUMP JUMPDEST PUSH2 0xB25 DUP2 PUSH2 0xB13 JUMP JUMPDEST DUP2 EQ PUSH2 0xB2F JUMPI PUSH0 DUP1 REVERT JUMPDEST POP JUMP JUMPDEST PUSH0 DUP2 MLOAD SWAP1 POP PUSH2 0xB40 DUP2 PUSH2 0xB1C JUMP JUMPDEST SWAP3 SWAP2 POP POP JUMP JUMPDEST PUSH0 DUP2 MLOAD SWAP1 POP PUSH2 0xB54 DUP2 PUSH2 0x778 JUMP JUMPDEST SWAP3 SWAP2 POP POP JUMP JUMPDEST PUSH0 DUP1 PUSH0 DUP1 PUSH0 PUSH1 0xA0 DUP7 DUP9 SUB SLT ISZERO PUSH2 0xB73 JUMPI PUSH2 0xB72 PUSH2 0x696 JUMP JUMPDEST JUMPDEST PUSH0 PUSH2 0xB80 DUP9 DUP3 DUP10 ADD PUSH2 0xAFF JUMP JUMPDEST SWAP6 POP POP PUSH1 0x20 PUSH2 0xB91 DUP9 DUP3 DUP10 ADD PUSH2 0xB32 JUMP JUMPDEST SWAP5 POP POP PUSH1 0x40 PUSH2 0xBA2 DUP9 DUP3 DUP10 ADD PUSH2 0xB46 JUMP JUMPDEST SWAP4 POP POP PUSH1 0x60 PUSH2 0xBB3 DUP9 DUP3 DUP10 ADD PUSH2 0xB46 JUMP JUMPDEST SWAP3 POP POP PUSH1 0x80 PUSH2 0xBC4 DUP9 DUP3 DUP10 ADD PUSH2 0xAFF JUMP JUMPDEST SWAP2 POP POP SWAP3 SWAP6 POP SWAP3 SWAP6 SWAP1 SWAP4 POP JUMP JUMPDEST PUSH0 PUSH2 0xBDB DUP3 PUSH2 0xB13 JUMP JUMPDEST SWAP2 POP PUSH2 0xBE6 DUP4 PUSH2 0xB13 JUMP JUMPDEST SWAP3 POP DUP3 DUP3 MUL PUSH2 0xBF4 DUP2 PUSH2 0xB13 JUMP JUMPDEST SWAP2 POP PUSH32 0x8000000000000000000000000000000000000000000000000000000000000000 DUP5 EQ PUSH0 DUP5 SLT AND ISZERO PUSH2 0xC2B JUMPI PUSH2 0xC2A PUSH2 0x86B JUMP JUMPDEST JUMPDEST DUP3 DUP3 SDIV DUP5 EQ DUP4 ISZERO OR PUSH2 0xC40 JUMPI PUSH2 0xC3F PUSH2 0x86B JUMP JUMPDEST JUMPDEST POP SWAP3 SWAP2 POP POP JUMP INVALID LOG2 PUSH5 0x6970667358 0x22 SLT KECCAK256 EQ SWAP12 0xBB 0x4D CODESIZE GT NOT DUP8 0xA9 0xFC JUMP XOR PUSH31 0x9C9ED04DDE9D9CDE991DB16429142A94C74B9B64736F6C634300081A003300 "
				},
				"gasEstimates": {
					"creation": {
						"codeDepositCost": "639400",
						"executionCost": "infinite",
						"totalCost": "infinite"
					},
					"external": {
						"": "infinite",
						"fund()": "infinite",
						"funderToAmountSent(address)": "2802",
						"funders(uint256)": "5009",
						"minUSD()": "413",
						"owner()": "infinite",
						"withdraw()": "infinite"
					}
				},
				"methodIdentifiers": {
					"fund()": "b60d4288",
					"funderToAmountSent(address)": "71518544",
					"funders(uint256)": "dc0d3dff",
					"minUSD()": "dc992aa0",
					"owner()": "8da5cb5b",
					"withdraw()": "3ccfd60b"
				}
			},
			"storageLayout": {
				"storage": [
					{
						"astId": 58,
						"contract": "contracts/FundMe-Project/FundMe.sol:FundMe",
						"label": "funders",
						"offset": 0,
						"slot": "0",
						"type": "t_array(t_address)dyn_storage"
					},
					{
						"astId": 62,
						"contract": "contracts/FundMe-Project/FundMe.sol:FundMe",
						"label": "funderToAmountSent",
						"offset": 0,
						"slot": "1",
						"type": "t_mapping(t_address,t_uint256)"
					}
				],
				"types": {
					"t_address": {
						"encoding": "inplace",
						"label": "address",
						"numberOfBytes": "20"
					},
					"t_array(t_address)dyn_storage": {
						"base": "t_address",
						"encoding": "dynamic_array",
						"label": "address[]",
						"numberOfBytes": "32"
					},
					"t_mapping(t_address,t_uint256)": {
						"encoding": "mapping",
						"key": "t_address",
						"label": "mapping(address => uint256)",
						"numberOfBytes": "32",
						"value": "t_uint256"
					},
					"t_uint256": {
						"encoding": "inplace",
						"label": "uint256",
						"numberOfBytes": "32"
					}
				}
			},
			"userdoc": {
				"kind": "user",
				"methods": {},
				"version": 1
			}
		}
	}
}